{
  "address": "0x65c78eaC38aa9B5eaa871d6cd22598E011aC1164",
  "abi": [
    {
      "inputs": [
        {
          "internalType": "uint256",
          "name": "tokenId",
          "type": "uint256"
        },
        {
          "components": [
            {
              "internalType": "address",
              "name": "offsetEntity",
              "type": "address"
            },
            {
              "internalType": "address",
              "name": "beneficiary",
              "type": "address"
            },
            {
              "internalType": "string",
              "name": "offsetEntityID",
              "type": "string"
            },
            {
              "internalType": "string",
              "name": "beneficiaryID",
              "type": "string"
            },
            {
              "internalType": "string",
              "name": "offsetMessage",
              "type": "string"
            },
            {
              "internalType": "uint256",
              "name": "creationTime",
              "type": "uint256"
            },
            {
              "internalType": "uint256",
              "name": "offsetTotalAmount",
              "type": "uint256"
            },
            {
              "internalType": "uint256[]",
              "name": "offsetIds",
              "type": "uint256[]"
            }
          ],
          "internalType": "struct OffsetRecord",
          "name": "offsetRecord",
          "type": "tuple"
        },
        {
          "internalType": "uint256",
          "name": "actionType",
          "type": "uint256"
        },
        {
          "internalType": "uint256[]",
          "name": "idsOfAREC",
          "type": "uint256[]"
        }
      ],
      "name": "getBadgeSVG",
      "outputs": [
        {
          "internalType": "string",
          "name": "",
          "type": "string"
        }
      ],
      "stateMutability": "pure",
      "type": "function"
    }
  ],
  "transactionHash": "0xba1ae09ca7ff00e3643c09b6fc68800795994d1dc73cdc05772e555a849998c1",
  "args": [],
  "numDeployments": 1,
  "solcInputHash": "a55d83bafc9da2a223c25e37c4e86f72",
  "bytecode": "0x608060405234801561001057600080fd5b5061291b806100206000396000f3fe608060405234801561001057600080fd5b506004361061002b5760003560e01c80631b60978f14610030575b600080fd5b61004361003e366004610c88565b610059565b6040516100509190610d6c565b60405180910390f35b606080600061006788610400565b9050600061008461007d8960c001356009610506565b600361063e565b9050600061009860408a0160208b01610d9f565b90506001600160a01b0381166100b8576100b560208a018a610d9f565b90505b60006100d56100cf836001600160a01b0316610798565b846107ae565b9050838185856100e88e60a00135610400565b6040516020016100fc959493929190610de4565b60405160208183030381529060405294505050506060866001141561013e575060408051808201909152600681526552656465656d60d01b6020820152610190565b866002141561016a575060408051808201909152600681526513d9999cd95d60d21b6020820152610190565b5060408051808201909152600d81526c14995919595b4b13d9999cd95d609a1b60208201525b82816101a96101a260e08c018c61102d565b9050610400565b6040516020016101bb9392919061107e565b604051602081830303815290604052925050606060005b6101df60e08a018a61102d565b905081101561028257806102215761021a6101fd60e08b018b61102d565b600081811061020e5761020e611173565b90506020020135610400565b9150610270565b61026d61024461023460e08c018c61102d565b8481811061020e5761020e611173565b6040805180820190915260018152600b60fa1b60208201526102679085906107df565b906107df565b91505b8061027a8161119f565b9150506101d2565b5082816040516020016102969291906111ba565b604051602081830303815290604052925050606060005b8581101561030457806102d7576102d08787600081811061020e5761020e611173565b91506102f2565b6102ef61024488888481811061020e5761020e611173565b91505b806102fc8161119f565b9150506102ad565b508281604051602001610318929190611238565b60408051601f198184030181526060830190915260358083529094506000925061289a60208301399050600082905060006103a261037b604051806040016040528060048152602001631738323360e11b815250846107df90919063ffffffff16565b610267600085516004885161039091906112b5565b61039a91906112b5565b87919061085c565b905084816040516020016103b79291906112cc565b60405160208183030381529060405294505050506103d482610984565b6040516020016103e49190611348565b6040516020818303038152906040529250505095945050505050565b6060816104245750506040805180820190915260018152600360fc1b602082015290565b8160005b811561044e57806104388161119f565b91506104479050600a836113a3565b9150610428565b60008167ffffffffffffffff811115610469576104696113b7565b6040519080825280601f01601f191660200182016040528015610493576020820181803683370190505b5090505b84156104fe576104a86001836112b5565b91506104b5600a866113cd565b6104c09060306113e1565b60f81b8183815181106104d5576104d5611173565b60200101906001600160f81b031916908160001a9053506104f7600a866113a3565b9450610497565b949350505050565b6060601282111561055e5760405162461bcd60e51b815260206004820152601d60248201527f537472696e67733a20466978656420706f696e7420746f6f206c6f6e6700000060448201526064015b60405180910390fd5b600061056984610400565b905082610577579050610638565b805181906060858211156105d5576105ce61059d61059588856112b5565b85908961085c565b6040805180820190915260018152601760f91b6020820152610267908160006105c68c896112b5565b89919061085c565b9050610632565b61062f836102676000856105ea8b60026113e1565b6105f491906112b5565b60408051808201909152601481527f302e3030303030303030303030303030303030300000000000000000000000006020820152919061085c565b90505b93505050505b92915050565b8151606090839060005b82518110156106e25782818151811061066357610663611173565b6020910101517fff0000000000000000000000000000000000000000000000000000000000000016601760f91b14156106d05782516106a286836113e1565b6106ad9060016113e1565b10156106cb576106bd85826113e1565b6106c89060016113e1565b91505b6106e2565b806106da8161119f565b915050610648565b5060008167ffffffffffffffff8111156106fe576106fe6113b7565b6040519080825280601f01601f191660200182016040528015610728576020820181803683370190505b50905060005b8281101561078e5783818151811061074857610748611173565b602001015160f81c60f81b82828151811061076557610765611173565b60200101906001600160f81b031916908160001a905350806107868161119f565b91505061072e565b5095945050505050565b60606106386001600160a01b0383166014610ad8565b6060600083836040516020016107c59291906113f9565b60405160208183030381529060405290506104fe81610984565b6060806040519050835180825260208201818101602087015b818310156108105780518352602092830192016107f8565b50855184518101855292509050808201602086015b8183101561083d578051835260209283019201610825565b508651929092011591909101601f01601f191660405250905092915050565b60608161086a81601f6113e1565b10156108b85760405162461bcd60e51b815260206004820152600e60248201527f736c6963655f6f766572666c6f770000000000000000000000000000000000006044820152606401610555565b6108c282846113e1565b845110156109125760405162461bcd60e51b815260206004820152601160248201527f736c6963655f6f75744f66426f756e64730000000000000000000000000000006044820152606401610555565b606082158015610931576040519150600082526020820160405261097b565b6040519150601f8416801560200281840101858101878315602002848b0101015b8183101561096a578051835260209283019201610952565b5050858452601f01601f1916604052505b50949350505050565b60608151600014156109a457505060408051602081019091526000815290565b60006040518060600160405280604081526020016128cf60409139905060006003845160026109d391906113e1565b6109dd91906113a3565b6109e8906004612863565b67ffffffffffffffff811115610a0057610a006113b7565b6040519080825280601f01601f191660200182016040528015610a2a576020820181803683370190505b509050600182016020820185865187015b80821015610a96576003820191508151603f8160121c168501518453600184019350603f81600c1c168501518453600184019350603f8160061c168501518453600184019350603f8116850151845350600183019250610a3b565b5050600386510660018114610ab25760028114610ac557610acd565b603d6001830353603d6002830353610acd565b603d60018303535b509195945050505050565b60606000610ae7836002612863565b610af29060026113e1565b67ffffffffffffffff811115610b0a57610b0a6113b7565b6040519080825280601f01601f191660200182016040528015610b34576020820181803683370190505b509050600360fc1b81600081518110610b4f57610b4f611173565b60200101906001600160f81b031916908160001a905350600f60fb1b81600181518110610b7e57610b7e611173565b60200101906001600160f81b031916908160001a9053506000610ba2846002612863565b610bad9060016113e1565b90505b6001811115610c32577f303132333435363738396162636465660000000000000000000000000000000085600f1660108110610bee57610bee611173565b1a60f81b828281518110610c0457610c04611173565b60200101906001600160f81b031916908160001a90535060049490941c93610c2b81612882565b9050610bb0565b508315610c815760405162461bcd60e51b815260206004820181905260248201527f537472696e67733a20686578206c656e67746820696e73756666696369656e746044820152606401610555565b9392505050565b600080600080600060808688031215610ca057600080fd5b85359450602086013567ffffffffffffffff80821115610cbf57600080fd5b90870190610100828a031215610cd457600080fd5b9094506040870135935060608701359080821115610cf157600080fd5b818801915088601f830112610d0557600080fd5b813581811115610d1457600080fd5b8960208260051b8501011115610d2957600080fd5b9699959850939650602001949392505050565b60005b83811015610d57578181015183820152602001610d3f565b83811115610d66576000848401525b50505050565b6020815260008251806020840152610d8b816040850160208701610d3c565b601f01601f19169190910160400192915050565b600060208284031215610db157600080fd5b81356001600160a01b0381168114610c8157600080fd5b60008151610dda818560208601610d3c565b9290920192915050565b7f7b226e616d65223a2241726b7265656e436c696d617465426164676520230000815260008651610e1c81601e850160208b01610d3c565b7f222c226465736372697074696f6e223a22000000000000000000000000000000601e918401918201527f50726f6f66206f662074686520636c696d61746520616374696f6e7320666f72602f8201527f20636172626f6e206f66667365742e0000000000000000000000000000000000604f8201527f222c22696d616765223a22646174613a696d6167652f7376672b786d6c3b6261605e820152641cd94d8d0b60da1b607e8201528651610ed9816083840160208b01610d3c565b7f222c2261747472696275746573223a5b7b22646973706c61795f74797065223a608392909101918201527f226e756d626572222c2274726169745f74797065223a2241524543204261646760a38201527f65204944222c2276616c7565223a00000000000000000000000000000000000060c382015261102161101361100d610fb0610faa610f6c60d187018c610dc8565b7f7d2c7b2274726169745f74797065223a2252656e657761626c6520456e65726781526b3c9116113b30b63ab2911d1160a11b6020820152602c0190565b89610dc8565b7f206b5768227d2c7b22646973706c61795f74797065223a2264617465222c227481527f726169745f74797065223a22415245432042616467652054696d65222c227661602082015264363ab2911d60d91b604082015260450190565b86610dc8565b611f4b60f21b815260020190565b98975050505050505050565b6000808335601e1984360301811261104457600080fd5b83018035915067ffffffffffffffff82111561105f57600080fd5b6020019150600581901b360382131561107757600080fd5b9250929050565b60008451611090818460208901610d3c565b80830190507f7b2274726169745f74797065223a22436c696d61746520416374696f6e20547981526c38329116113b30b63ab2911d1160991b602082015284516110e181602d840160208901610d3c565b7f227d2c7b22646973706c61795f74797065223a226e756d626572222c22747261602d92909101918201527f69745f74797065223a22436c696d61746520416374696f6e204e756d62657222604d8201526816113b30b63ab2911d60b91b606d8201528351611157816076840160208801610d3c565b611f4b60f21b6076929091019182015260780195945050505050565b634e487b7160e01b600052603260045260246000fd5b634e487b7160e01b600052601160045260246000fd5b60006000198214156111b3576111b3611189565b5060010190565b600083516111cc818460208801610d3c565b80830190507f7b2274726169745f74797065223a22436c696d61746520416374696f6e20494481526b399116113b30b63ab2911d1160a11b6020820152835161121c81602c840160208801610d3c565b62089f4b60ea1b602c9290910191820152602f01949350505050565b6000835161124a818460208801610d3c565b80830190507f7b2274726169745f74797065223a22526574697265642041524543204e46547381526a1116113b30b63ab2911d1160a91b6020820152835161129981602b840160208801610d3c565b62089f4b60ea1b602b9290910191820152602e01949350505050565b6000828210156112c7576112c7611189565b500390565b600083516112de818460208801610d3c565b80830190507f7b2274726169745f74797065223a22415245432042616467652046696c65222c815268113b30b63ab2911d1160b91b6020820152835161132b816029840160208801610d3c565b63227d5d7d60e01b60299290910191820152602d01949350505050565b7f646174613a6170706c69636174696f6e2f6a736f6e3b6261736536342c00000081526000825161138081601d850160208701610d3c565b91909101601d0192915050565b634e487b7160e01b600052601260045260246000fd5b6000826113b2576113b261138d565b500490565b634e487b7160e01b600052604160045260246000fd5b6000826113dc576113dc61138d565b500690565b600082198211156113f4576113f4611189565b500190565b7f3c7376672076696577426f783d223020302034303020343030222066696c6c3d81527f226e6f6e652220786d6c6e733d22687474703a2f2f7777772e77332e6f72672f60208201527f323030302f7376672220786d6c6e733a786c696e6b3d22687474703a2f2f777760408201527f772e77332e6f72672f313939392f786c696e6b223e3c646566733e3c7061746860608201527f2069643d2263656e7465722220643d224d302032302c3430302c32302220737460808201527f726f6b653d227768697465222066696c6c3d226e6f6e65222f3e3c706174682060a08201527f69643d22746f7022207472616e73666f726d3d227472616e736c61746528313460c08201527f302c3430292220643d224d202d3730203136322041203530203530203020312060e08201527f312031393020313632222f3e3c706174682069643d22616464726573732220746101008201527f72616e73666f726d3d227472616e736c617465283134302c3430292220643d226101208201527f4d202d39382031363020412035302035302030203120302032313820313630226101408201527f2f3e3c2f646566733e3c7061746820643d224d3137382e3539362031322e38306101608201527f3239433139312e38393120352e33343531203230382e31303920352e333435306101808201527f39203232312e3430342031322e383032394c3233362e3337342032312e3230306101a08201527f35433234322e3935342032342e38393136203235302e3335352032362e3837346101c08201527f35203235372e3839392032362e3936384c3237352e3036322032372e313830356101e08201527f433239302e3330352032372e33363933203330342e33352033352e34373835206102008201527f3331322e3133352034382e353834364c3332302e3930312036332e33343232436102208201527f3332342e3735342036392e38323838203333302e3137312037352e32343633206102408201527f3333362e3635382037392e303939324c3335312e3431352038372e38363543336102608201527f36342e3532322039352e36343938203337322e363331203130392e36393520336102808201527f37322e383139203132342e3933384c3337332e303332203134322e31303143336102a08201527f37332e313235203134392e363435203337352e313038203135372e30343620336102c08201527f37382e38203136332e3632364c3338372e313937203137382e353936433339346102e08201527f2e363535203139312e383931203339342e363535203230382e313039203338376103008201527f2e313937203232312e3430344c3337382e38203233362e333734433337352e316103208201527f3038203234322e393534203337332e313235203235302e333535203337332e306103408201527f3332203235372e3839394c3337322e383139203237352e303632433337322e366103608201527f3331203239302e333035203336342e353232203330342e3335203335312e34316103808201527f35203331322e3133354c3333362e363538203332302e393031433333302e31376103a08201527f31203332342e373534203332342e373534203333302e313731203332302e39306103c08201527f31203333362e3635384c3331322e313335203335312e343135433330342e33356103e08201527f203336342e353232203239302e333035203337322e363331203237352e3036326104008201527f203337322e3831394c3235372e383939203337332e303332433235302e3335356104208201527f203337332e313235203234322e393534203337352e313038203233362e3337346104408201527f203337382e384c3232312e343034203338372e313937433230382e31303920336104608201527f39342e363535203139312e383931203339342e363535203137382e35393620336104808201527f38372e3139374c3136332e363236203337382e38433135372e303436203337356104a08201527f2e313038203134392e363435203337332e313235203134322e313031203337336104c08201527f2e3033324c3132342e393338203337322e383139433130392e363935203337326104e08201527f2e3633312039352e36343938203336342e3532322038372e383635203335312e6105008201527f3431354c37392e30393932203333362e3635384337352e32343633203333302e6105208201527f3137312036392e38323838203332342e3735342036332e33343232203332302e6105408201527f3930314c34382e35383436203331322e3133354333352e34373835203330342e6105608201527f33352032372e33363933203239302e3330352032372e31383035203237352e306105808201527f36324c32362e393638203235372e3839394332362e38373435203235302e33356105a08201527f352032342e38393136203234322e3935342032312e32303035203233362e33376105c08201527f344c31322e38303239203232312e34303443352e33343531203230382e3130396105e08201527f20352e3334353039203139312e3839312031322e38303239203137382e3539366106008201527f4c32312e32303035203136332e3632364332342e38393136203135372e3034366106208201527f2032362e38373435203134392e3634352032362e393638203134322e3130314c6106408201527f32372e31383035203132342e3933384332372e33363933203130392e363935206106608201527f33352e343738352039352e363439382034382e353834362038372e3836354c366106808201527f332e333432322037392e303939324336392e383238382037352e3234363320376106a08201527f352e323436332036392e383238382037392e303939322036332e333432324c386106c08201527f372e3836352034382e353834364339352e363439382033352e343738352031306106e08201527f392e3639352032372e33363933203132342e3933382032372e313830354c31346107008201527f322e3130312032362e393638433134392e3634352032362e38373435203135376107208201527f2e3034362032342e38393136203136332e3632362032312e323030354c3137386107408201527f2e3539362031322e383032395a222066696c6c3d2223323832383244222073746107608201527f726f6b653d222334303430343722207374726f6b6557696474683d22312e33386107808201527f383839222f3e3c636972636c652063783d22323030222063793d2232303022206107a08201527f723d223136362e363637222066696c6c3d222332383238324422207374726f6b6107c08201527f653d222333344334364522207374726f6b6557696474683d22322e36363636376107e08201527f222f3e3c7265637420783d2238382220793d223838222077696474683d2232326108008201527f3422206865696768743d22323234222072783d22313132222066696c6c3d22236108208201527f324632463334222f3e3c7061746820643d224d3139382e383236203136372e356108408201527f33394c3138322e333638203139332e383938433138302e373838203139362e346108608201527f3239203138322e363036203139392e373139203138352e353838203139392e376108808201527f3139483234342e303033433234372e333537203139392e373139203234392e346108a08201527f3033203139362e303234203234372e363236203139332e3137354c3230352e366108c08201527f37203132352e393731433230332e303636203132312e383031203139372e30306108e08201527f37203132312e383031203139342e333936203132352e3937314c3135312e39396109008201527f203139332e383938433135302e343039203139362e343239203135322e3232376109208201527f203139392e373139203135352e323039203139392e373139483136342e3639326109408201527f433136352e313735203139392e373139203136352e3635203139392e353936206109608201527f3136362e303732203139392e333631433136362e343935203139392e313237206109808201527f3136362e383531203139382e373839203136372e313036203139382e3337394c6109a08201527f3139382e383236203134372e353635433139382e393534203134372e333620316109c08201527f39392e313332203134372e313931203139392e333433203134372e30373443316109e08201527f39392e353535203134362e393536203139392e373932203134362e3839352032610a008201527f30302e303334203134362e383935433230302e323736203134362e3839352032610a208201527f30302e353134203134362e393536203230302e373235203134372e3037344332610a408201527f30302e393336203134372e313931203230312e313134203134372e3336203230610a608201527f312e323432203134372e3536354c3232322e393433203138322e333236433232610a808201527f332e303739203138322e353432203232332e313534203138322e373931203232610aa08201527f332e313632203138332e303436433232332e313639203138332e333031203232610ac08201527f332e313038203138332e353533203232322e393835203138332e373736433232610ae08201527f322e38363120313834203232322e3638203138342e313836203232322e343631610b008201527f203138342e333135433232322e323431203138342e343435203232312e393931610b208201527f203138342e353133203232312e373336203138342e353132483230382e373131610b408201527f433230382e343537203138342e353131203230382e323039203138342e343432610b608201527f203230372e393931203138342e333133433230372e373733203138342e313833610b808201527f203230372e353933203138332e393937203230372e343731203138332e373735610ba08201527f433230372e333438203138332e353533203230372e323837203138332e333031610bc08201527f203230372e323934203138332e303438433230372e333031203138322e373934610be08201527f203230372e333736203138322e353436203230372e3531203138322e3333314c610c008201527f3230382e353139203138302e373131433230382e3636203138302e3438342032610c208201527f30382e373335203138302e323232203230382e373335203137392e3935354332610c408201527f30382e373335203137392e363838203230382e3636203137392e343236203230610c608201527f382e353139203137392e324c3230312e323432203136372e353434433230312e610c808201527f313135203136372e333339203230302e393337203136372e313639203230302e610ca08201527f373236203136372e303531433230302e353135203136362e393333203230302e610cc08201527f323737203136362e383731203230302e303335203136362e383731433139392e610ce08201527f373934203136362e3837203139392e353536203136362e393332203139392e33610d008201527f3434203136372e303438433139392e313333203136372e313635203139382e39610d208201527f3535203136372e333334203139382e383236203136372e3533395a222066696c610d408201527f6c3d2223333443343645222f3e3c7465787420746578742d616e63686f723d22610d608201527f6d6964646c65222066696c6c3d2223333443343645223e3c7465787450617468610d8082018190527f20666f6e742d66616d696c793d224d6f6e747365727261742220786c696e6b3a610da083018190527f687265663d2223746f70222073746172744f66667365743d223530252220666f610dc08401527f6e742d73697a653d2232342220666f6e742d7765696768743d22373030223e41610de08401527f726b7265656e20436c696d61746520416374696f6e2042616467653c2f746578610e008401527f74506174683e3c2f746578743e3c7465787420746578742d616e63686f723d22610e20840152610e40830191909152610e608201527f687265663d222361646472657373222073746172744f66667365743d22353025610e808201527f2220666f6e742d73697a653d2231362220666f6e742d7765696768743d223530610ea08201526218111f60e91b610ec082015260006104fe6126f16126eb6125d3610ec3860188610dc8565b7f3c2f74657874506174683e3c2f746578743e3c67207472616e73666f726d3d2281527f7472616e736c61746528302c32323729223e3c7465787420666f6e742d66616d60208201527f696c793d224d6f6e747365727261742220666f6e742d73697a653d223236707860408201527f2220666f6e742d7765696768743d22373030222066696c6c3d2277686974652260608201527f20746578742d616e63686f723d226d6964646c652220646f6d696e616e742d6260808201527f6173656c696e653d226d6964646c65223e3c746578745061746820786c696e6b60a08201527f3a687265663d222363656e746572222073746172744f66667365743d2235302560c082015261111f60f11b60e082015260e20190565b85610dc8565b7f204152543c2f74657874506174683e3c2f746578743e3c2f673e3c672074726181527f6e73666f726d3d227472616e736c61746528302c32353329223e3c726563742060208201527f77696474683d2234303022206865696768743d223430222f3e3c74657874206660408201527f6f6e742d66616d696c793d224d6f6e747365727261742220666f6e742d73697a60608201527f653d22313270782220666f6e742d7765696768743d22343030222066696c6c3d60808201527f22233746374638442220746578742d616e63686f723d226d6964646c6522206460a08201527f6f6d696e616e742d626173656c696e653d226d6964646c65223e3c746578745060c08201527f61746820786c696e6b3a687265663d222363656e746572222073746172744f6660e08201527f667365743d22353025223e4f66667365743c2f74657874506174683e3c2f74656101008201526c3c3a1f1e17b39f1e17b9bb339f60991b61012082015261012d0190565b600081600019048311821515161561287d5761287d611189565b500290565b60008161289157612891611189565b50600019019056fe68747470733a2f2f617265632e61726b7265656e2e636f6d2f6261646765732f415245435f42616467655f3030303030302e7064664142434445464748494a4b4c4d4e4f505152535455565758595a6162636465666768696a6b6c6d6e6f707172737475767778797a303132333435363738392b2fa164736f6c6343000809000a",
  "devdoc": {
    "kind": "dev",
    "methods": {},
    "version": 1
  },
  "userdoc": {
    "kind": "user",
    "methods": {},
    "version": 1
  },
  "storageLayout": {
    "storage": [],
    "types": null
  }
}