{
  "address": "0xB4B19F8381bf6a44CDc8591294683Bf21C8997cb",
  "abi": [
    {
      "inputs": [
        {
          "internalType": "uint256",
          "name": "tokenId",
          "type": "uint256"
        },
        {
          "internalType": "address",
          "name": "owner",
          "type": "address"
        },
        {
          "components": [
            {
              "internalType": "address",
              "name": "issuer",
              "type": "address"
            },
            {
              "internalType": "string",
              "name": "serialNumber",
              "type": "string"
            },
            {
              "internalType": "address",
              "name": "minter",
              "type": "address"
            },
            {
              "internalType": "uint32",
              "name": "startTime",
              "type": "uint32"
            },
            {
              "internalType": "uint32",
              "name": "endTime",
              "type": "uint32"
            },
            {
              "internalType": "uint128",
              "name": "amountREC",
              "type": "uint128"
            },
            {
              "internalType": "uint8",
              "name": "status",
              "type": "uint8"
            },
            {
              "internalType": "string",
              "name": "cID",
              "type": "string"
            },
            {
              "internalType": "string",
              "name": "region",
              "type": "string"
            },
            {
              "internalType": "string",
              "name": "url",
              "type": "string"
            },
            {
              "internalType": "string",
              "name": "memo",
              "type": "string"
            },
            {
              "internalType": "uint16",
              "name": "idAsset",
              "type": "uint16"
            }
          ],
          "internalType": "struct RECData",
          "name": "recData",
          "type": "tuple"
        }
      ],
      "name": "getARECSVG",
      "outputs": [
        {
          "internalType": "string",
          "name": "",
          "type": "string"
        }
      ],
      "stateMutability": "pure",
      "type": "function"
    }
  ],
  "transactionHash": "0xa853c020c4aaa6a227cca4fc89219b5a44e5fa57c52badd5a3770639ac54dedc",
  "args": [],
  "numDeployments": 1,
  "solcInputHash": "6906724c5dab593fabd827accce0e5c3",
  "bytecode": "0x608060405234801561001057600080fd5b506131e5806100206000396000f3fe608060405234801561001057600080fd5b506004361061002b5760003560e01c8063dbd642ea14610030575b600080fd5b61004361003e36600461139f565b610059565b6040516100509190611569565b60405180910390f35b6060806000610067866101b7565b9050600061008d6100868660a001516001600160801b031660096102bd565b60036103fb565b9050600061009c888888610555565b90508281848860200151856040516020016100bb9594939291906115b8565b60405160208183030381529060405293505050816100e2856060015163ffffffff166101b7565b6100f5866080015163ffffffff166101b7565b8661010001518761012001516040516020016101159594939291906117d4565b6040516020818303038152906040529150836101400151516000146101615761014084015160405161014b918491602001611960565b6040516020818303038152906040529150610184565b8160405160200161017291906119d7565b60405160208183030381529060405291505b61018d82610700565b60405160200161019d91906119fd565b604051602081830303815290604052925050509392505050565b6060816101db5750506040805180820190915260018152600360fc1b602082015290565b8160005b811561020557806101ef81611a58565b91506101fe9050600a83611a89565b91506101df565b60008167ffffffffffffffff81111561022057610220611284565b6040519080825280601f01601f19166020018201604052801561024a576020820181803683370190505b5090505b84156102b55761025f600183611a9d565b915061026c600a86611ab4565b610277906030611ac8565b60f81b81838151811061028c5761028c611ae0565b60200101906001600160f81b031916908160001a9053506102ae600a86611a89565b945061024e565b949350505050565b606060128211156103155760405162461bcd60e51b815260206004820152601d60248201527f537472696e67733a20466978656420706f696e7420746f6f206c6f6e6700000060448201526064015b60405180910390fd5b6000610320846101b7565b90508261032e5790506103f5565b805181906060858211156103925761038b61035461034c8885611a9d565b859089610854565b6040805180820190915260018152601760f91b60208201526103859081600061037d8c89611a9d565b899190610854565b9061097c565b90506103ef565b6103ec836103856000856103a78b6002611ac8565b6103b19190611a9d565b60408051808201909152601481527f302e30303030303030303030303030303030303000000000000000000000000060208201529190610854565b90505b93505050505b92915050565b8151606090839060005b825181101561049f5782818151811061042057610420611ae0565b6020910101517fff0000000000000000000000000000000000000000000000000000000000000016601760f91b141561048d57825161045f8683611ac8565b61046a906001611ac8565b10156104885761047a8582611ac8565b610485906001611ac8565b91505b61049f565b8061049781611a58565b915050610405565b5060008167ffffffffffffffff8111156104bb576104bb611284565b6040519080825280601f01601f1916602001820160405280156104e5576020820181803683370190505b50905060005b8281101561054b5783818151811061050557610505611ae0565b602001015160f81c60f81b82828151811061052257610522611ae0565b60200101906001600160f81b031916908160001a9053508061054381611a58565b9150506104eb565b5095945050505050565b60608061056a846001600160a01b03166109f9565b60405160200161057a9190611af6565b604051602081830303815290604052905060006105af6105a88560a001516001600160801b031660096102bd565b60046103fb565b9050600061060d6040518060800160405280604b815260200161312e604b91396040805180820190915260208082527f41524543206365727469666963617465732c20726570726573656e74696e672090820152610385908561097c565b905061062a6105a88660a001516001600160801b031660096102bd565b506101208501516040516106469185918591859160200161266e565b60405160208183030381529060405292505050600061066e846060015163ffffffff16610a0f565b90506000610685856080015163ffffffff16610a0f565b905060006106a0836000015184602001518560400151610d5b565b905060006106bb836000015184602001518560400151610d5b565b90508487610100015183836040516020016106d99493929190612aed565b6040516020818303038152906040529450505050506106f781610700565b95945050505050565b606081516000141561072057505060408051602081019091526000815290565b6000604051806060016040528060408152602001613179604091399050600060038451600261074f9190611ac8565b6107599190611a89565b610764906004612fe3565b67ffffffffffffffff81111561077c5761077c611284565b6040519080825280601f01601f1916602001820160405280156107a6576020820181803683370190505b509050600182016020820185865187015b80821015610812576003820191508151603f8160121c168501518453600184019350603f81600c1c168501518453600184019350603f8160061c168501518453600184019350603f81168501518453506001830192506107b7565b505060038651066001811461082e576002811461084157610849565b603d6001830353603d6002830353610849565b603d60018303535b509195945050505050565b60608161086281601f611ac8565b10156108b05760405162461bcd60e51b815260206004820152600e60248201527f736c6963655f6f766572666c6f77000000000000000000000000000000000000604482015260640161030c565b6108ba8284611ac8565b8451101561090a5760405162461bcd60e51b815260206004820152601160248201527f736c6963655f6f75744f66426f756e6473000000000000000000000000000000604482015260640161030c565b6060821580156109295760405191506000825260208201604052610973565b6040519150601f8416801560200281840101858101878315602002848b0101015b8183101561096257805183526020928301920161094a565b5050858452601f01601f1916604052505b50949350505050565b6060806040519050835180825260208201818101602087015b818310156109ad578051835260209283019201610995565b50855184518101855292509050808201602086015b818310156109da5780518352602092830192016109c2565b508651929092011591909101601f01601f191660405250905092915050565b60606103f56001600160a01b038316601461103a565b6040805160e081018252600060208201819052918101829052606081018290526080810182905260a0810182905260c081018290526107b281529080805b8351610a58906111ea565b15610a69576301e285009150610a71565b6301e1338091505b84610a7c8385611ac8565b1115610a8757610ab2565b600184600001818151610a9a9190613002565b61ffff16905250610aab8284611ac8565b9250610a4d565b610aba611249565b601f81528451610ac9906111ea565b15610ada57601d6020820152610ae2565b601c60208201525b601f60408201819052601e606083018190526080830182905260a0830181905260c0830182905260e083018290526101008301819052610120830182905261014083015261016082015260009150815b600c8360ff161015610bb157818360ff16600c8110610b5357610b53611ae0565b6020020151610b689060ff1662015180612fe3565b905086610b758683611ac8565b1115610b9357610b86836001613028565b60ff166020870152610bb1565b610b9d8186611ac8565b945082610ba98161304d565b935050610b32565b600092505b8160018760200151610bc8919061306d565b60ff16600c8110610bdb57610bdb611ae0565b602002015160ff168360ff161015610c3a5786610bfb8662015180611ac8565b1115610c1957610c0c836001613028565b60ff166040870152610c3a565b610c266201518086611ac8565b945082610c328161304d565b935050610bb6565b600092505b60188360ff161015610c8c5786610c5886610e10611ac8565b1115610c6c5760ff83166060870152610c8c565b610c78610e1086611ac8565b945082610c848161304d565b935050610c3f565b600092505b603c8360ff161015610cdc5786610ca986603c611ac8565b1115610cbd5760ff83166080870152610cdc565b610cc8603c86611ac8565b945082610cd48161304d565b935050610c91565b603c610ce88689611a9d565b1115610d105760405162461bcd60e51b8152602060048201526000602482015260440161030c565b610d1a8588611a9d565b60ff1660a0870152610d2f6201518088611a89565b93506007610d3e856003611ac8565b610d489190611ab4565b60ff1660c0870152509395945050505050565b60408051600a80825281830190925260609160009190602082018180368337019050509050610d8b600a86613090565b610d9a9061ffff166030611ac8565b60f81b81600381518110610db057610db0611ae0565b60200101906001600160f81b031916908160001a905350610dd2600a866130b1565b9450610ddf600a86613090565b610dee9061ffff166030611ac8565b60f81b81600281518110610e0457610e04611ae0565b60200101906001600160f81b031916908160001a905350610e26600a866130b1565b9450610e33600a86613090565b610e429061ffff166030611ac8565b60f81b81600181518110610e5857610e58611ae0565b60200101906001600160f81b031916908160001a905350610e7a600a866130b1565b9450610e8b61ffff86166030611ac8565b60f81b81600081518110610ea157610ea1611ae0565b60200101906001600160f81b031916908160001a905350602d60f81b81600481518110610ed057610ed0611ae0565b60200101906001600160f81b031916908160001a905350610ef2600a856130d2565b610f009060ff166030611ac8565b60f81b81600681518110610f1657610f16611ae0565b60200101906001600160f81b031916908160001a905350610f38600a856130f4565b9350610f4860ff85166030611ac8565b60f81b81600581518110610f5e57610f5e611ae0565b60200101906001600160f81b031916908160001a905350602d60f81b81600781518110610f8d57610f8d611ae0565b60200101906001600160f81b031916908160001a905350610faf600a846130d2565b610fbd9060ff166030611ac8565b60f81b81600981518110610fd357610fd3611ae0565b60200101906001600160f81b031916908160001a905350610ff5600a846130f4565b925061100560ff84166030611ac8565b60f81b8160088151811061101b5761101b611ae0565b60200101906001600160f81b031916908160001a905350949350505050565b60606000611049836002612fe3565b611054906002611ac8565b67ffffffffffffffff81111561106c5761106c611284565b6040519080825280601f01601f191660200182016040528015611096576020820181803683370190505b509050600360fc1b816000815181106110b1576110b1611ae0565b60200101906001600160f81b031916908160001a905350600f60fb1b816001815181106110e0576110e0611ae0565b60200101906001600160f81b031916908160001a9053506000611104846002612fe3565b61110f906001611ac8565b90505b6001811115611194577f303132333435363738396162636465660000000000000000000000000000000085600f166010811061115057611150611ae0565b1a60f81b82828151811061116657611166611ae0565b60200101906001600160f81b031916908160001a90535060049490941c9361118d81613116565b9050611112565b5083156111e35760405162461bcd60e51b815260206004820181905260248201527f537472696e67733a20686578206c656e67746820696e73756666696369656e74604482015260640161030c565b9392505050565b60006111f7600483613090565b61ffff161561120857506000919050565b611213606483613090565b61ffff161561122457506001919050565b61123061019083613090565b61ffff161561124157506000919050565b506001919050565b604051806101800160405280600c906020820280368337509192915050565b80356001600160a01b038116811461127f57600080fd5b919050565b634e487b7160e01b600052604160045260246000fd5b604051610180810167ffffffffffffffff811182821017156112be576112be611284565b60405290565b600082601f8301126112d557600080fd5b813567ffffffffffffffff808211156112f0576112f0611284565b604051601f8301601f19908116603f0116810190828211818310171561131857611318611284565b8160405283815286602085880101111561133157600080fd5b836020870160208301376000602085830101528094505050505092915050565b803563ffffffff8116811461127f57600080fd5b80356001600160801b038116811461127f57600080fd5b803560ff8116811461127f57600080fd5b803561ffff8116811461127f57600080fd5b6000806000606084860312156113b457600080fd5b833592506113c460208501611268565b9150604084013567ffffffffffffffff808211156113e157600080fd5b9085019061018082880312156113f657600080fd5b6113fe61129a565b61140783611268565b815260208301358281111561141b57600080fd5b611427898286016112c4565b60208301525061143960408401611268565b604082015261144a60608401611351565b606082015261145b60808401611351565b608082015261146c60a08401611365565b60a082015261147d60c0840161137c565b60c082015260e08301358281111561149457600080fd5b6114a0898286016112c4565b60e08301525061010080840135838111156114ba57600080fd5b6114c68a8287016112c4565b82840152505061012080840135838111156114e057600080fd5b6114ec8a8287016112c4565b828401525050610140808401358381111561150657600080fd5b6115128a8287016112c4565b828401525050610160915061152882840161138d565b828201528093505050509250925092565b60005b8381101561155457818101518382015260200161153c565b83811115611563576000848401525b50505050565b6020815260008251806020840152611588816040850160208701611539565b601f01601f19169190910160400192915050565b600081516115ae818560208601611539565b9290920192915050565b7f7b226e616d65223a2241524543204e46542023000000000000000000000000008152600086516115f0816013850160208b01611539565b7f222c226465736372697074696f6e223a220000000000000000000000000000006013918401918201527f44657461696c73206f662072656e657761626c6520656e6572677920696e636c60248201527f7564656420696e207468652041524543204e46542e000000000000000000000060448201527f222c22696d616765223a22646174613a696d6167652f7376672b786d6c3b62616059820152641cd94d8d0b60da1b607982015286516116ad81607e840160208b01611539565b7f222c2261747472696275746573223a5b7b22646973706c61795f74797065223a607e92909101918201527f226e756d626572222c2274726169745f74797065223a2241524543204e465420609e8201526b24a21116113b30b63ab2911d60a11b60be8201526117c86117b56117af61177061176a61172f60ca87018c61159c565b7f7d2c7b2274726169745f74797065223a2253657269616c204e756d626572222c815268113b30b63ab2911d1160b91b602082015260290190565b8961159c565b7f227d2c7b2274726169745f74797065223a2252656e657761626c6520456e657281526c33bc9116113b30b63ab2911d1160991b6020820152602d0190565b8661159c565b66081ad5da089f4b60ca1b815260070190565b98975050505050505050565b600086516117e6818460208b01611539565b80830190507f7b22646973706c61795f74797065223a2264617465222c2274726169745f747981527f7065223a22415245432053746172742054696d65222c2276616c7565223a00006020820152865161184781603e840160208b01611539565b7f7d2c7b22646973706c61795f74797065223a2264617465222c2274726169745f603e92909101918201527f74797065223a224152454320456e642054696d65222c2276616c7565223a0000605e82015285516118ab81607c840160208a01611539565b7f7d2c7b2274726169745f74797065223a224152454320526567696f6e222c2276607c92909101918201526630b63ab2911d1160c91b609c82015284516118f98160a3840160208901611539565b61195361194561193f60a3848601017f227d2c7b2274726169745f74797065223a22415245432055524c222c2276616c8152643ab2911d1160d91b602082015260250190565b8761159c565b61227d60f01b815260020190565b9998505050505050505050565b60008351611972818460208801611539565b80830190507f2c7b2274726169745f74797065223a2241524543204d656d6f222c2276616c7581526332911d1160e11b602082015283516119ba816024840160208801611539565b63227d5d7d60e01b60249290910191820152602801949350505050565b600082516119e9818460208701611539565b615d7d60f01b920191825250600201919050565b7f646174613a6170706c69636174696f6e2f6a736f6e3b6261736536342c000000815260008251611a3581601d850160208701611539565b91909101601d0192915050565b634e487b7160e01b600052601160045260246000fd5b6000600019821415611a6c57611a6c611a42565b5060010190565b634e487b7160e01b600052601260045260246000fd5b600082611a9857611a98611a73565b500490565b600082821015611aaf57611aaf611a42565b500390565b600082611ac357611ac3611a73565b500690565b60008219821115611adb57611adb611a42565b500190565b634e487b7160e01b600052603260045260246000fd5b7f3c7376672076696577426f783d223020302039303020373434222066696c6c3d81527f226e6f6e652220786d6c6e733d22687474703a2f2f7777772e77332e6f72672f60208201527f323030302f7376672220786d6c6e733a786c696e6b3d22687474703a2f2f777760408201527f772e77332e6f72672f313939392f786c696e6b223e3c646566733e3c7061746860608201527f2069643d2263656e7465722220643d224d30203230203830302032302220737460808201527f726f6b653d227768697465222066696c6c3d226e6f6e65222f3e3c2f6465667360a08201527f3e3c7374796c653e2e667b666f6e742d66616d696c793a4d6f6e74736572726160c08201527f743b646f6d696e616e742d626173656c696e653a6d6964646c653b746578742d60e08201527f616e63686f723a6d6964646c657d3c2f7374796c653e3c7374796c653e2e66346101008201527f7b666f6e742d66616d696c793a4d6f6e747365727261743b666f6e742d73697a6101208201527f653d313270783b666f6e742d7765696768743a3430303b646f6d696e616e742d6101408201527f626173656c696e653a6d6964646c653b746578742d616e63686f723a6d6964646101608201527f6c657d3c2f7374796c653e3c7374796c653e2e66627b666f6e742d66616d696c6101808201527f793a4d6f6e747365727261743b666f6e742d7765696768743a3730303b646f6d6101a08201527f696e616e742d626173656c696e653a6d6964646c653b746578742d616e63686f6101c08201527f723a6d6964646c657d3c2f7374796c653e3c706174682066696c6c3d222366666101e08201527f662220643d224d2e352e356838393976373433482e357a222f3e3c70617468206102008201527f7374726f6b653d22233246324633342220643d224d2e352e35683839397637346102208201527f33482e357a222f3e3c70617468207374726f6b653d22234442444245342220646102408201527f3d224d32342e352032342e356838353176363935682d3835317a222f3e3c70616102608201527f7468207374726f6b653d22234442444245342220643d224d33322e352033322e6102808201527f356838333576363739682d3833357a222f3e3c673e3c7061746820643d224d346102a08201527f383220383863302031372e3637332d31342e3332372033322d33322033322d316102c08201527f372e36373320302d33322d31342e3332372d33322d333220302d31372e3637336102e08201527f2031342e3332372d33322033322d33322031372e36373320302033322031342e6103008201527f3332372033322033327a222066696c6c3d2223303039313341222f3e3c7061746103208201527f6820643d224d3434392e35332038372e3831366c2d362e3538332031302e35346103408201527f33632d2e36333220312e3031332e30393520322e33323920312e32383820322e6103608201527f3332396832332e33363663312e333432203020322e31362d312e34373820312e6103808201527f3434392d322e3631384c3435322e3236382037312e3139632d312e3034322d316103a08201527f2e3636382d332e3436352d312e3636382d342e35303920306c2d31362e3936336103c08201527f2032372e3137632d2e36333220312e3031332e30393520322e33323920312e326103e08201527f383820322e33323968332e373933632e3139332d2e3030312e3338332d2e30356104008201527f2e3535322d2e31343361312e313520312e313520302030302e3431342d2e33396104208201527f346c31322e3638372d32302e333235612e3537332e35373320302030312e39366104408201527f3720306c382e36382031332e393035612e3537352e35373520302030312e30316104608201527f372e35382e3536382e35363820302030312d2e352e323934682d352e3231612e6104808201527f35372e353720302030312d2e34382d2e3837336c2e3430342d2e363438612e356104a08201527f37352e3537352030203030302d2e3630346c2d322e3931312d342e363632612e6104c08201527f3536362e35363620302030302d2e3735392d2e3139392e3537342e35373420306104e08201527f2030302d2e3230382e3139377a222066696c6c3d2223666666222f3e3c2f673e6105008201527f3c67207472616e73666f726d3d227472616e736c6174652835302c31333029226105208201527f3e3c7465787420636c6173733d22662220666f6e742d73697a653d22323470786105408201527f2220666f6e742d7765696768743d22373030222066696c6c3d222332303230326105608201527f34223e3c746578745061746820786c696e6b3a687265663d222363656e7465726105808201527f222073746172744f66667365743d22353025223e41524b5245454e2052454e456105a08201527f5741424c4520454e455247592043455254494649434154453c2f7465787450616105c08201527f74683e3c2f746578743e3c2f673e3c6c696e652078313d223530222079313d226105e08201527f363230222078323d22383530222079323d2236323022207374726f6b653d22236106008201527f45304530453022207374726f6b652d77696474683d22312e3522207374726f6b6106208201527f652d6461736861727261793d22342c3422202f3e3c67207472616e73666f726d6106408201527f3d227472616e736c6174652835302c32303029223e3c7465787420636c6173736106608201527f3d2266342220666f6e742d73697a653d2231327078222066696c6c3d222335446106808201527f35443638223e3c746578745061746820786c696e6b3a687265663d222363656e6106a08201527f746572222073746172744f66667365743d22353025223e5468697320636572746106c08201527f696669636174652069732069737375656420746f20746865206163636f756e746106e08201527f206f6e20506f6c79676f6e206f663c2f74657874506174683e3c2f746578743e6107008201527f3c2f673e3c67207472616e73666f726d3d227472616e736c6174652835302c326107208201527f343029223e3c726563742077696474683d2238303022206865696768743d22346107408201527f30222f3e3c7465787420636c6173733d22662220666f6e742d73697a653d22316107608201527f3670782220666f6e742d7765696768743d22373030222066696c6c3d222332666107808201527f32663334223e3c746578745061746820786c696e6b3a687265663d222363656e6107a08201527f746572222073746172744f66667365743d22353025223e0000000000000000006107c082015260006111e361264561261c61249d6107d786018761159c565b6000805160206131b983398151915281527f726d3d227472616e736c6174652835302c32373229223e3c7465787420636c6160208201527f73733d2266342220666f6e742d73697a653d2231327078222066696c6c3d222360408201527f354435443638223e3c746578745061746820786c696e6b3a687265663d22236360608201527f656e746572222073746172744f66667365743d22353025223e62793c2f74657860808201527f74506174683e3c2f746578743e3c2f673e3c67207472616e73666f726d3d227460a08201527f72616e736c6174652835302c33303229223e3c7465787420636c6173733d226660c08201527f2220666f6e742d73697a653d22313670782220666f6e742d7765696768743d2260e08201527f373030222066696c6c3d2223326632663334223e3c746578745061746820786c6101008201527f696e6b3a687265663d222363656e746572222073746172744f66667365743d22610120820152641a9812911f60d91b6101408201526101450190565b7f41726b7265656e204e6574776f726b00000000000000000000000000000000008152600f0190565b7f3c2f74657874506174683e3c2f746578743e3c2f673e00000000000000000000815260160190565b60008551612680818460208a01611539565b7f3c67207472616e73666f726d3d227472616e736c6174652835302c33343429229083019081527f3e3c7465787420636c6173733d2266342220666f6e742d73697a653d2231327060208201527f78222066696c6c3d2223354435443638223e3c746578745061746820786c696e60408201527f6b3a687265663d222363656e746572222073746172744f66667365743d22353060608201526212911f60e91b60808201527f636f6e6669726d696e67207468652069737375616e6365206f6600000000000060838201526000805160206131b9833981519152609d8201527f726d3d227472616e736c6174652835302c33383429223e3c726563742077696460bd8201527f74683d2238303022206865696768743d22343022202f3e3c7465787420636c6160dd8201527f73733d22662220666f6e742d73697a653d22333270782220666f6e742d77656960fd8201527f6768743d22373030222066696c6c3d2223323032303234223e3c74657874506161011d8201527f746820786c696e6b3a687265663d222363656e746572222073746172744f666661013d8201526939b2ba1e911a9812911f60b11b61015d820152612ae26129c16117af6128ff61176a61285061016787018c61159c565b6000805160206131b983398151915281527f726d3d227472616e736c6174652835302c34313829223e3c7465787420636c6160208201527f73733d2266342220666f6e742d73697a653d2231327078222066696c6c3d222360408201527f354435443638223e3c746578745061746820786c696e6b3a687265663d22236360608201527f656e746572222073746172744f66667365743d22353025223e00000000000000608082015260990190565b6000805160206131b983398151915281527f726d3d227472616e736c6174652835302c34343429223e3c7465787420636c6160208201527f73733d22662220666f6e742d73697a653d22313270782220666f6e742d77656960408201527f6768743d22373030222066696c6c3d2223326632663334223e3c74657874506160608201527f746820786c696e6b3a687265663d222363656e746572222073746172744f666660808201526939b2ba1e911a9812911f60b11b60a082015260aa0190565b6000805160206131b983398151915281527f726d3d227472616e736c6174652835302c34373029223e3c7465787420636c6160208201527f73733d2266342220666f6e742d73697a653d2231327078222066696c6c3d222360408201527f354435443638223e3c746578745061746820786c696e6b3a687265663d22236360608201527f656e746572222073746172744f66667365743d22353025223e5468697320636560808201527f7274696669636174652072656c6174657320746f2074686520656c656374726960a08201527f636974792067656e65726174696f6e206c6f6361746564206174206f7220696e60c08201527f3c2f74657874506174683e3c2f746578743e3c2f673e0000000000000000000060e082015260f60190565b979650505050505050565b60008551612aff818460208a01611539565b80830190507f3c67207472616e73666f726d3d227472616e736c6174652835302c353034292281527f3e3c726563742077696474683d2238303022206865696768743d223430222f3e60208201527f3c7465787420636c6173733d22662220666f6e742d73697a653d22313670782260408201527f20666f6e742d7765696768743d22373030222066696c6c3d222332663266333460608201527f223e3c746578745061746820786c696e6b3a687265663d222363656e7465722260808201527f2073746172744f66667365743d22353025223e0000000000000000000000000060a08201528551612bf88160b3840160208a01611539565b6000805160206131b983398151915260b392909101918201527f726d3d227472616e736c6174652835302c35333629223e3c7465787420636c6160d38201527f73733d2266342220666f6e742d73697a653d2231327078222066696c6c3d222360f38201527f354435443638223e3c746578745061746820786c696e6b3a687265663d2223636101138201527f656e746572222073746172744f66667365743d22353025223e696e20726573706101338201527f656374206f6620746865207265706f7274696e6720706572696f643c2f7465786101538201527f74506174683e3c2f746578743e3c2f673e3c67207472616e73666f726d3d22746101738201527f72616e736c6174652835302c35373429223e3c7465787420636c6173733d22666101938201527f342220666f6e742d73697a653d2231327078222066696c6c3d222335443544366101b38201527f38223e3c746578745061746820786c696e6b3a687265663d222363656e7465726101d38201527f222073746172744f66667365743d22353025223e746f3c2f74657874506174686101f38201527f3e3c2f746578743e3c2f673e3c67207472616e73666f726d3d227472616e736c6102138201527f617465282d32302c35373429223e3c7465787420636c6173733d22662220666f6102338201527f6e742d73697a653d22313670782220666f6e742d7765696768743d22353030226102538201527f2066696c6c3d2223323032303234223e3c746578745061746820786c696e6b3a6102738201527f687265663d222363656e746572222073746172744f66667365743d2235302522610293820152601f60f91b6102b3820152612ae2612f3d6117af612e7a6102b485018961159c565b6000805160206131b983398151915281527f726d3d227472616e736c617465283132302c35373429223e3c7465787420636c60208201527f6173733d22662220666f6e742d73697a653d22313670782220666f6e742d776560408201527f696768743d22353030222066696c6c3d2223323032303234223e3c746578745060608201527f61746820786c696e6b3a687265663d222363656e746572222073746172744f6660808201526a3339b2ba1e911a9812911f60a91b60a082015260ab0190565b7f3c2f74657874506174683e3c2f746578743e3c2f673e3c6c696e652078313d2281527f3530222079313d22363230222078323d22383530222079323d2236323022207360208201527f74726f6b653d222345304530453022207374726f6b652d77696474683d22312e60408201527f3522207374726f6b652d6461736861727261793d22342c3422202f3e3c2f7376606082015261339f60f11b608082015260820190565b6000816000190483118215151615612ffd57612ffd611a42565b500290565b600061ffff80831681851680830382111561301f5761301f611a42565b01949350505050565b600060ff821660ff84168060ff0382111561304557613045611a42565b019392505050565b600060ff821660ff81141561306457613064611a42565b60010192915050565b600060ff821660ff84168082101561308757613087611a42565b90039392505050565b600061ffff808416806130a5576130a5611a73565b92169190910692915050565b600061ffff808416806130c6576130c6611a73565b92169190910492915050565b600060ff8316806130e5576130e5611a73565b8060ff84160691505092915050565b600060ff83168061310757613107611a73565b8060ff84160491505092915050565b60008161312557613125611a42565b50600019019056fe204d5768206f6620656c6563747269636974792067656e6572617465642066726f6d2072656e657761626c6520736f75726365732c207265636f726564656420696e20746865206c696e6b4142434445464748494a4b4c4d4e4f505152535455565758595a6162636465666768696a6b6c6d6e6f707172737475767778797a303132333435363738392b2f3c2f74657874506174683e3c2f746578743e3c2f673e3c67207472616e73666fa164736f6c6343000809000a",
  "devdoc": {
    "kind": "dev",
    "methods": {},
    "version": 1
  },
  "userdoc": {
    "kind": "user",
    "methods": {},
    "version": 1
  },
  "storageLayout": {
    "storage": [],
    "types": null
  }
}