{
  "address": "0xBB17d9b933F631024cA4cF45391E7302CD527489",
  "abi": [
    {
      "inputs": [],
      "stateMutability": "nonpayable",
      "type": "constructor"
    },
    {
      "anonymous": false,
      "inputs": [
        {
          "indexed": true,
          "internalType": "address",
          "name": "artToken",
          "type": "address"
        },
        {
          "indexed": true,
          "internalType": "address",
          "name": "payToken",
          "type": "address"
        },
        {
          "indexed": false,
          "internalType": "uint256",
          "name": "newPrice",
          "type": "uint256"
        }
      ],
      "name": "ARTPriceChanged",
      "type": "event"
    },
    {
      "anonymous": false,
      "inputs": [
        {
          "indexed": true,
          "internalType": "address",
          "name": "artToken",
          "type": "address"
        },
        {
          "indexed": true,
          "internalType": "address",
          "name": "payToken",
          "type": "address"
        },
        {
          "indexed": false,
          "internalType": "uint256",
          "name": "artAmount",
          "type": "uint256"
        },
        {
          "indexed": false,
          "internalType": "uint256",
          "name": "payAmount",
          "type": "uint256"
        }
      ],
      "name": "ARTSold",
      "type": "event"
    },
    {
      "anonymous": false,
      "inputs": [
        {
          "indexed": false,
          "internalType": "address",
          "name": "previousAdmin",
          "type": "address"
        },
        {
          "indexed": false,
          "internalType": "address",
          "name": "newAdmin",
          "type": "address"
        }
      ],
      "name": "AdminChanged",
      "type": "event"
    },
    {
      "anonymous": false,
      "inputs": [
        {
          "indexed": true,
          "internalType": "address",
          "name": "beacon",
          "type": "address"
        }
      ],
      "name": "BeaconUpgraded",
      "type": "event"
    },
    {
      "anonymous": false,
      "inputs": [
        {
          "indexed": true,
          "internalType": "address",
          "name": "artToken",
          "type": "address"
        },
        {
          "indexed": false,
          "internalType": "uint256",
          "name": "amountDeposit",
          "type": "uint256"
        }
      ],
      "name": "Deposit",
      "type": "event"
    },
    {
      "anonymous": false,
      "inputs": [
        {
          "indexed": false,
          "internalType": "uint8",
          "name": "version",
          "type": "uint8"
        }
      ],
      "name": "Initialized",
      "type": "event"
    },
    {
      "anonymous": false,
      "inputs": [
        {
          "indexed": true,
          "internalType": "address",
          "name": "previousOwner",
          "type": "address"
        },
        {
          "indexed": true,
          "internalType": "address",
          "name": "newOwner",
          "type": "address"
        }
      ],
      "name": "OwnershipTransferred",
      "type": "event"
    },
    {
      "anonymous": false,
      "inputs": [
        {
          "indexed": true,
          "internalType": "address",
          "name": "implementation",
          "type": "address"
        }
      ],
      "name": "Upgraded",
      "type": "event"
    },
    {
      "anonymous": false,
      "inputs": [
        {
          "indexed": true,
          "internalType": "address",
          "name": "artToken",
          "type": "address"
        },
        {
          "indexed": true,
          "internalType": "address",
          "name": "payToken",
          "type": "address"
        },
        {
          "indexed": false,
          "internalType": "uint256",
          "name": "balance",
          "type": "uint256"
        }
      ],
      "name": "Withdraw",
      "type": "event"
    },
    {
      "inputs": [
        {
          "internalType": "address",
          "name": "artToken",
          "type": "address"
        },
        {
          "internalType": "address",
          "name": "controller",
          "type": "address"
        }
      ],
      "name": "addNewART",
      "outputs": [],
      "stateMutability": "nonpayable",
      "type": "function"
    },
    {
      "inputs": [
        {
          "internalType": "address",
          "name": "",
          "type": "address"
        }
      ],
      "name": "artSaleInfo",
      "outputs": [
        {
          "internalType": "address",
          "name": "controller",
          "type": "address"
        },
        {
          "internalType": "address",
          "name": "fundReceiver",
          "type": "address"
        },
        {
          "internalType": "uint128",
          "name": "amountDeposited",
          "type": "uint128"
        },
        {
          "internalType": "uint128",
          "name": "amountSold",
          "type": "uint128"
        }
      ],
      "stateMutability": "view",
      "type": "function"
    },
    {
      "inputs": [
        {
          "internalType": "address",
          "name": "tokenPay",
          "type": "address"
        },
        {
          "internalType": "address",
          "name": "tokenART",
          "type": "address"
        },
        {
          "internalType": "uint256",
          "name": "amountPay",
          "type": "uint256"
        },
        {
          "internalType": "uint256",
          "name": "amountART",
          "type": "uint256"
        },
        {
          "internalType": "bool",
          "name": "isExactPay",
          "type": "bool"
        }
      ],
      "name": "buyART",
      "outputs": [],
      "stateMutability": "nonpayable",
      "type": "function"
    },
    {
      "inputs": [
        {
          "internalType": "address",
          "name": "tokenART",
          "type": "address"
        },
        {
          "internalType": "uint256",
          "name": "amountART",
          "type": "uint256"
        },
        {
          "internalType": "bool",
          "name": "isExactPay",
          "type": "bool"
        }
      ],
      "name": "buyARTNative",
      "outputs": [],
      "stateMutability": "payable",
      "type": "function"
    },
    {
      "inputs": [
        {
          "internalType": "address",
          "name": "tokenART",
          "type": "address"
        },
        {
          "internalType": "uint256",
          "name": "amountART",
          "type": "uint256"
        },
        {
          "internalType": "bool",
          "name": "isExactPay",
          "type": "bool"
        },
        {
          "components": [
            {
              "internalType": "address",
              "name": "token",
              "type": "address"
            },
            {
              "internalType": "uint256",
              "name": "value",
              "type": "uint256"
            },
            {
              "internalType": "uint256",
              "name": "deadline",
              "type": "uint256"
            },
            {
              "internalType": "uint8",
              "name": "v",
              "type": "uint8"
            },
            {
              "internalType": "bytes32",
              "name": "r",
              "type": "bytes32"
            },
            {
              "internalType": "bytes32",
              "name": "s",
              "type": "bytes32"
            }
          ],
          "internalType": "struct Signature",
          "name": "permitToPay",
          "type": "tuple"
        }
      ],
      "name": "buyARTWithPermit",
      "outputs": [],
      "stateMutability": "nonpayable",
      "type": "function"
    },
    {
      "inputs": [
        {
          "internalType": "address",
          "name": "artToken",
          "type": "address"
        },
        {
          "internalType": "address",
          "name": "newController",
          "type": "address"
        }
      ],
      "name": "changeARTOwner",
      "outputs": [],
      "stateMutability": "nonpayable",
      "type": "function"
    },
    {
      "inputs": [
        {
          "internalType": "address",
          "name": "artToken",
          "type": "address"
        },
        {
          "internalType": "address",
          "name": "buyInToken",
          "type": "address"
        },
        {
          "internalType": "uint256",
          "name": "price",
          "type": "uint256"
        }
      ],
      "name": "changeSalePrice",
      "outputs": [],
      "stateMutability": "nonpayable",
      "type": "function"
    },
    {
      "inputs": [
        {
          "internalType": "address",
          "name": "artToken",
          "type": "address"
        },
        {
          "internalType": "uint256",
          "name": "amountDeposit",
          "type": "uint256"
        }
      ],
      "name": "depositART",
      "outputs": [],
      "stateMutability": "nonpayable",
      "type": "function"
    },
    {
      "inputs": [
        {
          "internalType": "address",
          "name": "",
          "type": "address"
        }
      ],
      "name": "forwarders",
      "outputs": [
        {
          "internalType": "bool",
          "name": "",
          "type": "bool"
        }
      ],
      "stateMutability": "view",
      "type": "function"
    },
    {
      "inputs": [
        {
          "internalType": "address",
          "name": "native",
          "type": "address"
        }
      ],
      "name": "initialize",
      "outputs": [],
      "stateMutability": "nonpayable",
      "type": "function"
    },
    {
      "inputs": [],
      "name": "owner",
      "outputs": [
        {
          "internalType": "address",
          "name": "",
          "type": "address"
        }
      ],
      "stateMutability": "view",
      "type": "function"
    },
    {
      "inputs": [],
      "name": "postUpdate",
      "outputs": [],
      "stateMutability": "nonpayable",
      "type": "function"
    },
    {
      "inputs": [],
      "name": "proxiableUUID",
      "outputs": [
        {
          "internalType": "bytes32",
          "name": "",
          "type": "bytes32"
        }
      ],
      "stateMutability": "view",
      "type": "function"
    },
    {
      "inputs": [],
      "name": "renounceOwnership",
      "outputs": [],
      "stateMutability": "nonpayable",
      "type": "function"
    },
    {
      "inputs": [
        {
          "internalType": "address",
          "name": "",
          "type": "address"
        },
        {
          "internalType": "address",
          "name": "",
          "type": "address"
        }
      ],
      "name": "saleIncome",
      "outputs": [
        {
          "internalType": "uint128",
          "name": "priceForSale",
          "type": "uint128"
        },
        {
          "internalType": "uint128",
          "name": "amountReceived",
          "type": "uint128"
        }
      ],
      "stateMutability": "view",
      "type": "function"
    },
    {
      "inputs": [
        {
          "internalType": "address",
          "name": "forwarder",
          "type": "address"
        },
        {
          "internalType": "bool",
          "name": "active",
          "type": "bool"
        }
      ],
      "name": "setForwarder",
      "outputs": [],
      "stateMutability": "nonpayable",
      "type": "function"
    },
    {
      "inputs": [
        {
          "internalType": "address",
          "name": "artToken",
          "type": "address"
        },
        {
          "internalType": "address",
          "name": "receiver",
          "type": "address"
        }
      ],
      "name": "setFundReceiver",
      "outputs": [],
      "stateMutability": "nonpayable",
      "type": "function"
    },
    {
      "inputs": [],
      "name": "tokenNative",
      "outputs": [
        {
          "internalType": "address",
          "name": "",
          "type": "address"
        }
      ],
      "stateMutability": "view",
      "type": "function"
    },
    {
      "inputs": [
        {
          "internalType": "address",
          "name": "newOwner",
          "type": "address"
        }
      ],
      "name": "transferOwnership",
      "outputs": [],
      "stateMutability": "nonpayable",
      "type": "function"
    },
    {
      "inputs": [
        {
          "internalType": "address",
          "name": "newImplementation",
          "type": "address"
        }
      ],
      "name": "upgradeTo",
      "outputs": [],
      "stateMutability": "nonpayable",
      "type": "function"
    },
    {
      "inputs": [
        {
          "internalType": "address",
          "name": "newImplementation",
          "type": "address"
        },
        {
          "internalType": "bytes",
          "name": "data",
          "type": "bytes"
        }
      ],
      "name": "upgradeToAndCall",
      "outputs": [],
      "stateMutability": "payable",
      "type": "function"
    },
    {
      "inputs": [
        {
          "internalType": "address",
          "name": "artToken",
          "type": "address"
        },
        {
          "internalType": "address",
          "name": "payToken",
          "type": "address"
        }
      ],
      "name": "withdraw",
      "outputs": [],
      "stateMutability": "nonpayable",
      "type": "function"
    },
    {
      "stateMutability": "payable",
      "type": "receive"
    }
  ],
  "transactionHash": "0x96c7a34a5c0583d3c108abbb392c7a99c7be3ad2a117da8c04fafe4d38b5a04b",
  "args": [],
  "numDeployments": 1,
  "solcInputHash": "dee2280988a47c553318547fc5053913",
  "bytecode": "0x60a0604052306080523480156200001557600080fd5b506200002062000026565b620000e8565b600054610100900460ff1615620000935760405162461bcd60e51b815260206004820152602760248201527f496e697469616c697a61626c653a20636f6e747261637420697320696e697469604482015266616c697a696e6760c81b606482015260840160405180910390fd5b60005460ff9081161015620000e6576000805460ff191660ff9081179091556040519081527f7f26b83ff96e1f2b6a682f133852f6798a09c465da95921460cefb38474024989060200160405180910390a15b565b6080516126006200012e600039600081816106a9015281816106e901528181610ad501528181610b1501528181610b9101528181610d240152610d6401526126006000f3fe6080604052600436106101095760003560e01c806305f97b0b1461012f578063323cb71a1461014f5780633612cf251461016f5780633659cfe6146101e057806340756b2e146102005780634f1ef2861461021357806352d1902d1461022657806355816f6c146102495780635ee2331b1461026957806364201ad41461030057806368f50b8a14610320578063715018a61461034d5780637238fca814610362578063818f8b98146103775780638da5cb5b1461039757806391d98456146103ac5780639c019a5b146103cc578063c4d66de8146103ec578063f2fde38b1461040c578063f46d57c31461042c578063f73afdba1461046c578063f940e3851461048c57600080fd5b3661012a5760c9546001600160a01b0316331461012857610128611f31565b005b600080fd5b34801561013b57600080fd5b5061012861014a366004611f63565b6104ac565b34801561015b57600080fd5b5061012861016a366004611f96565b61056f565b34801561017b57600080fd5b506101bb61018a366004611f63565b60cb6020908152600092835260408084209091529082529020546001600160801b0380821691600160801b90041682565b604080516001600160801b039384168152929091166020830152015b60405180910390f35b3480156101ec57600080fd5b506101286101fb366004611fc0565b61069e565b61012861020e366004611fe9565b610767565b61012861022136600461203f565b610aca565b34801561023257600080fd5b5061023b610b84565b6040519081526020016101d7565b34801561025557600080fd5b50610128610264366004611f63565b610c33565b34801561027557600080fd5b506102c6610284366004611fc0565b60cc602052600090815260409020805460018201546002909201546001600160a01b0391821692909116906001600160801b0380821691600160801b90041684565b604080516001600160a01b0395861681529490931660208501526001600160801b03918216928401929092521660608201526080016101d7565b34801561030c57600080fd5b5061012861031b366004612100565b610ce8565b34801561032c57600080fd5b5060c954610340906001600160a01b031681565b6040516101d7919061215b565b34801561035957600080fd5b50610128610d05565b34801561036e57600080fd5b50610128610d19565b34801561038357600080fd5b50610128610392366004611f63565b610dc2565b3480156103a357600080fd5b50610340610e2c565b3480156103b857600080fd5b506101286103c736600461216f565b610e3b565b3480156103d857600080fd5b506101286103e73660046121ab565b610eeb565b3480156103f857600080fd5b50610128610407366004611fc0565b610fdb565b34801561041857600080fd5b50610128610427366004611fc0565b611116565b34801561043857600080fd5b5061045c610447366004611fc0565b60ca6020526000908152604090205460ff1681565b60405190151581526020016101d7565b34801561047857600080fd5b50610128610487366004612205565b61118c565b34801561049857600080fd5b506101286104a7366004611f63565b6111bf565b6104b46113b0565b6001600160a01b0381166104e35760405162461bcd60e51b81526004016104da9061223c565b60405180910390fd5b6001600160a01b03828116600090815260cc602052604090205416156105415760405162461bcd60e51b815260206004820152601360248201527210549092ce88105b1c9958591e481059191959606a1b60448201526064016104da565b6001600160a01b03918216600090815260cc6020526040902080546001600160a01b03191691909216179055565b6001600160a01b03828116600090815260cc60205260409020541633146105a85760405162461bcd60e51b81526004016104da90612268565b6001600160a01b038216600090815260cc60205260409020600201546001600160801b03908116906105da83836122a9565b915081106106255760405162461bcd60e51b815260206004820152601860248201527710549092ce8811195c1bdcda5d081bdd995c999b1bddd95960421b60448201526064016104da565b6106318333308561141f565b6001600160a01b038316600081815260cc602090815260409182902060020180546001600160801b0319166001600160801b03861617905590518481527fe1fffcc4923d04b559f4d29a8bfc6cda04eb5b0d3c460751c2402c5c5cc9109c910160405180910390a2505050565b306001600160a01b037f00000000000000000000000000000000000000000000000000000000000000001614156106e75760405162461bcd60e51b81526004016104da906122c1565b7f00000000000000000000000000000000000000000000000000000000000000006001600160a01b0316610719611547565b6001600160a01b03161461073f5760405162461bcd60e51b81526004016104da906122fb565b61074881611563565b604080516000808252602082019092526107649183919061156b565b50565b6001600160a01b03808416600090815260cb6020908152604080832060c954909416835292905220546001600160801b0316806107b65760405162461bcd60e51b81526004016104da90612335565b3460006107c16116ea565b90508315610938576000836107da84633b9aca0061236c565b6107e4919061238b565b9050858110156108065760405162461bcd60e51b81526004016104da906123ad565b6001600160a01b03878116600090815260cb6020908152604080832060c9549094168352929052208054849190601090610851908490600160801b90046001600160801b03166123d5565b92506101000a8154816001600160801b0302191690836001600160801b03160217905550610880878383611726565b6001600160a01b038716600090815260cc6020526040902060020180548291906010906108be908490600160801b90046001600160801b03166123d5565b92506101000a8154816001600160801b0302191690836001600160801b0316021790555060c960009054906101000a90046001600160a01b03166001600160a01b0316876001600160a01b03166000805160206125ad833981519152838660405161092a929190612400565b60405180910390a350610ac2565b6000633b9aca00600161094b868961236c565b61095990633b9aca006122a9565b610963919061240e565b61096d919061238b565b90508083101561098f5760405162461bcd60e51b81526004016104da90612425565b6001600160a01b03878116600090815260cb6020908152604080832060c95490941683529290522080548291906010906109da908490600160801b90046001600160801b03166123d5565b92506101000a8154816001600160801b0302191690836001600160801b03160217905550610a09878388611726565b6001600160a01b038716600090815260cc602052604090206002018054879190601090610a47908490600160801b90046001600160801b03166123d5565b92506101000a8154816001600160801b0302191690836001600160801b0316021790555080831115610a8657610a8633610a81838661240e565b61183a565b60c9546040516001600160a01b03918216918916906000805160206125ad83398151915290610ab8908a908690612400565b60405180910390a3505b505050505050565b306001600160a01b037f0000000000000000000000000000000000000000000000000000000000000000161415610b135760405162461bcd60e51b81526004016104da906122c1565b7f00000000000000000000000000000000000000000000000000000000000000006001600160a01b0316610b45611547565b6001600160a01b031614610b6b5760405162461bcd60e51b81526004016104da906122fb565b610b7482611563565b610b808282600161156b565b5050565b6000306001600160a01b037f00000000000000000000000000000000000000000000000000000000000000001614610c1f5760405162461bcd60e51b815260206004820152603860248201527f555550535570677261646561626c653a206d757374206e6f742062652063616c6044820152771b1959081d1a1c9bdd59da0819195b1959d85d1958d85b1b60421b60648201526084016104da565b5060008051602061258d8339815191525b90565b33610c3c610e2c565b6001600160a01b0316816001600160a01b03161480610c7757506001600160a01b03808416600090815260cc60205260409020548282169116145b610c935760405162461bcd60e51b81526004016104da90612268565b6001600160a01b038216610cb95760405162461bcd60e51b81526004016104da9061223c565b506001600160a01b03918216600090815260cc6020526040902080546001600160a01b03191691909216179055565b610cfe33610cf46116ea565b8787878787611903565b5050505050565b610d0d6113b0565b610d176000611c3b565b565b306001600160a01b037f0000000000000000000000000000000000000000000000000000000000000000161415610d625760405162461bcd60e51b81526004016104da906122c1565b7f00000000000000000000000000000000000000000000000000000000000000006001600160a01b0316610d94611547565b6001600160a01b031614610dba5760405162461bcd60e51b81526004016104da906122fb565b610d176113b0565b6001600160a01b03828116600090815260cc6020526040902054163314610dfb5760405162461bcd60e51b81526004016104da90612268565b6001600160a01b03918216600090815260cc6020526040902060010180546001600160a01b03191691909216179055565b6033546001600160a01b031690565b6001600160a01b03838116600090815260cc6020526040902054163314610e745760405162461bcd60e51b81526004016104da90612268565b6001600160a01b03838116600081815260cb602090815260408083209487168084529482529182902080546001600160801b0319166001600160801b03871617905590518481527f30bc8cc2050dc4ca2dd7674ca5289013e83891d0dd0665c50bc57eb33764abeb910160405180910390a3505050565b6000610ef56116ea565b9050610f046020830183611fc0565b6001600160a01b031663d505accf823060208601356040870135610f2e6080890160608a0161244d565b6040516001600160e01b031960e088901b1681526001600160a01b0395861660048201529490931660248501526044840191909152606483015260ff166084820152608085013560a482015260a085013560c482015260e401600060405180830381600087803b158015610fa157600080fd5b505af1158015610fb5573d6000803e3d6000fd5b50610cfe9250839150819050610fce6020860186611fc0565b8886602001358989611903565b600054610100900460ff1615808015610ffb5750600054600160ff909116105b8061101c575061100a30611c8d565b15801561101c575060005460ff166001145b61107f5760405162461bcd60e51b815260206004820152602e60248201527f496e697469616c697a61626c653a20636f6e747261637420697320616c72656160448201526d191e481a5b9a5d1a585b1a5e995960921b60648201526084016104da565b6000805460ff1916600117905580156110a2576000805461ff0019166101001790555b6110aa611c9c565b6110b2611cd3565b60c980546001600160a01b0319166001600160a01b0384161790558015610b80576000805461ff0019169055604051600181527f7f26b83ff96e1f2b6a682f133852f6798a09c465da95921460cefb38474024989060200160405180910390a15050565b61111e6113b0565b6001600160a01b0381166111835760405162461bcd60e51b815260206004820152602660248201527f4f776e61626c653a206e6577206f776e657220697320746865207a65726f206160448201526564647265737360d01b60648201526084016104da565b61076481611c3b565b6111946113b0565b6001600160a01b0391909116600090815260ca60205260409020805460ff1916911515919091179055565b6001600160a01b03828116600090815260cc60205260409020541633146111f85760405162461bcd60e51b81526004016104da90612268565b6001600160a01b03808316600090815260cc6020526040902060010154168061121e5750335b6001600160a01b03838116600090815260cb6020908152604080832086851680855292529091205460c954600160801b9091046001600160801b0316921614156113525760c9546040516370a0823160e01b81526000916001600160a01b0316906370a082319061129390309060040161215b565b60206040518083038186803b1580156112ab57600080fd5b505afa1580156112bf573d6000803e3d6000fd5b505050506040513d601f19601f820116820180604052508101906112e39190612470565b60c954604051632e1a7d4d60e01b8152600481018390529192506001600160a01b031690632e1a7d4d90602401600060405180830381600087803b15801561132a57600080fd5b505af115801561133e573d6000803e3d6000fd5b5050505061134c838361183a565b5061135d565b61135d838383611726565b826001600160a01b0316846001600160a01b03167f9b1bfa7fa9ee420a16e124f794c35ac9f90472acc99140eb2f6447c714cad8eb836040516113a291815260200190565b60405180910390a350505050565b6113b86116ea565b6001600160a01b03166113c9610e2c565b6001600160a01b031614610d175760405162461bcd60e51b815260206004820181905260248201527f4f776e61626c653a2063616c6c6572206973206e6f7420746865206f776e657260448201526064016104da565b604080516001600160a01b0385811660248301528481166044830152606480830185905283518084039091018152608490920183526020820180516001600160e01b03166323b872dd60e01b179052915160009283929088169161148391906124b5565b6000604051808303816000865af19150503d80600081146114c0576040519150601f19603f3d011682016040523d82523d6000602084013e6114c5565b606091505b50915091508180156114ef5750805115806114ef5750808060200190518101906114ef91906124d1565b610ac25760405162461bcd60e51b8152602060048201526024808201527f5472616e7366657248656c7065723a205452414e534645525f46524f4d5f46416044820152631253115160e21b60648201526084016104da565b60008051602061258d833981519152546001600160a01b031690565b6107646113b0565b7f4910fdfa16fed3260ed0e7147f7cc6da11a60208b5b9406d12a635614ffd91435460ff16156115a35761159e83611cfa565b505050565b826001600160a01b03166352d1902d6040518163ffffffff1660e01b815260040160206040518083038186803b1580156115dc57600080fd5b505afa92505050801561160c575060408051601f3d908101601f1916820190925261160991810190612470565b60015b61166f5760405162461bcd60e51b815260206004820152602e60248201527f45524331393637557067726164653a206e657720696d706c656d656e7461746960448201526d6f6e206973206e6f74205555505360901b60648201526084016104da565b60008051602061258d83398151915281146116de5760405162461bcd60e51b815260206004820152602960248201527f45524331393637557067726164653a20756e737570706f727465642070726f786044820152681a58589b195555525160ba1b60648201526084016104da565b5061159e838383611d94565b336014361080159061171457506001600160a01b038116600090815260ca602052604090205460ff165b15610c30575060131936013560601c90565b604080516001600160a01b038481166024830152604480830185905283518084039091018152606490920183526020820180516001600160e01b031663a9059cbb60e01b179052915160009283929087169161178291906124b5565b6000604051808303816000865af19150503d80600081146117bf576040519150601f19603f3d011682016040523d82523d6000602084013e6117c4565b606091505b50915091508180156117ee5750805115806117ee5750808060200190518101906117ee91906124d1565b610cfe5760405162461bcd60e51b815260206004820152601f60248201527f5472616e7366657248656c7065723a205452414e534645525f4641494c45440060448201526064016104da565b604080516000808252602082019092526001600160a01b03841690839060405161186491906124b5565b60006040518083038185875af1925050503d80600081146118a1576040519150601f19603f3d011682016040523d82523d6000602084013e6118a6565b606091505b505090508061159e5760405162461bcd60e51b815260206004820152602360248201527f5472616e7366657248656c7065723a204554485f5452414e534645525f46414960448201526213115160ea1b60648201526084016104da565b6001600160a01b03808516600090815260cb60209081526040808320938916835292905220546001600160801b03168061194f5760405162461bcd60e51b81526004016104da90612335565b8115611ab85760008161196686633b9aca0061236c565b611970919061238b565b9050838110156119925760405162461bcd60e51b81526004016104da906123ad565b61199e878a308861141f565b6001600160a01b03868116600090815260cb60209081526040808320938b1683529290522080548691906010906119e6908490600160801b90046001600160801b03166123d5565b92506101000a8154816001600160801b0302191690836001600160801b03160217905550611a15868983611726565b6001600160a01b038616600090815260cc602052604090206002018054829190601090611a53908490600160801b90046001600160801b03166123d5565b92506101000a8154816001600160801b0302191690836001600160801b03160217905550866001600160a01b0316866001600160a01b03166000805160206125ad8339815191528388604051611aaa929190612400565b60405180910390a350611c31565b6000633b9aca006001611acb848761236c565b611ad990633b9aca006122a9565b611ae3919061240e565b611aed919061238b565b905084811115611b0f5760405162461bcd60e51b81526004016104da90612425565b611b1b878a308461141f565b6001600160a01b03868116600090815260cb60209081526040808320938b168352929052208054829190601090611b63908490600160801b90046001600160801b03166123d5565b92506101000a8154816001600160801b0302191690836001600160801b03160217905550611b92868986611726565b6001600160a01b038616600090815260cc602052604090206002018054859190601090611bd0908490600160801b90046001600160801b03166123d5565b92506101000a8154816001600160801b0302191690836001600160801b03160217905550866001600160a01b0316866001600160a01b03166000805160206125ad8339815191528684604051611c27929190612400565b60405180910390a3505b5050505050505050565b603380546001600160a01b038381166001600160a01b0319831681179093556040519116919082907f8be0079c531659141344cd1fd0a4f28419497f9722a3daafe3b4186f6b6457e090600090a35050565b6001600160a01b03163b151590565b600054610100900460ff16611cc35760405162461bcd60e51b81526004016104da906124ee565b610d17611cce6116ea565b611c3b565b600054610100900460ff16610d175760405162461bcd60e51b81526004016104da906124ee565b611d0381611c8d565b611d655760405162461bcd60e51b815260206004820152602d60248201527f455243313936373a206e657720696d706c656d656e746174696f6e206973206e60448201526c1bdd08184818dbdb9d1c9858dd609a1b60648201526084016104da565b60008051602061258d83398151915280546001600160a01b0319166001600160a01b0392909216919091179055565b611d9d83611dbf565b600082511180611daa5750805b1561159e57611db98383611dff565b50505050565b611dc881611cfa565b6040516001600160a01b038216907fbc7cd75a20ee27fd9adebab32041f755214dbc6bffa90cc0225b39da2e5c2d3b90600090a250565b6060611e0a83611c8d565b611e655760405162461bcd60e51b815260206004820152602660248201527f416464726573733a2064656c65676174652063616c6c20746f206e6f6e2d636f6044820152651b9d1c9858dd60d21b60648201526084016104da565b600080846001600160a01b031684604051611e8091906124b5565b600060405180830381855af49150503d8060008114611ebb576040519150601f19603f3d011682016040523d82523d6000602084013e611ec0565b606091505b5091509150611ee882826040518060600160405280602781526020016125cd60279139611ef1565b95945050505050565b60608315611f00575081611f2a565b825115611f105782518084602001fd5b8160405162461bcd60e51b81526004016104da9190612539565b9392505050565b634e487b7160e01b600052600160045260246000fd5b80356001600160a01b0381168114611f5e57600080fd5b919050565b60008060408385031215611f7657600080fd5b611f7f83611f47565b9150611f8d60208401611f47565b90509250929050565b60008060408385031215611fa957600080fd5b611fb283611f47565b946020939093013593505050565b600060208284031215611fd257600080fd5b611f2a82611f47565b801515811461076457600080fd5b600080600060608486031215611ffe57600080fd5b61200784611f47565b925060208401359150604084013561201e81611fdb565b809150509250925092565b634e487b7160e01b600052604160045260246000fd5b6000806040838503121561205257600080fd5b61205b83611f47565b915060208301356001600160401b038082111561207757600080fd5b818501915085601f83011261208b57600080fd5b81358181111561209d5761209d612029565b604051601f8201601f19908116603f011681019083821181831017156120c5576120c5612029565b816040528281528860208487010111156120de57600080fd5b8260208601602083013760006020848301015280955050505050509250929050565b600080600080600060a0868803121561211857600080fd5b61212186611f47565b945061212f60208701611f47565b93506040860135925060608601359150608086013561214d81611fdb565b809150509295509295909350565b6001600160a01b0391909116815260200190565b60008060006060848603121561218457600080fd5b61218d84611f47565b925061219b60208501611f47565b9150604084013590509250925092565b6000806000808486036101208112156121c357600080fd5b6121cc86611f47565b94506020860135935060408601356121e381611fdb565b925060c0605f19820112156121f757600080fd5b509295919450926060019150565b6000806040838503121561221857600080fd5b61222183611f47565b9150602083013561223181611fdb565b809150509250929050565b6020808252601290820152714152424b3a205a65726f204164647265737360701b604082015260600190565b60208082526011908201527010549092ce88139bdd08185b1b1bddd959607a1b604082015260600190565b634e487b7160e01b600052601160045260246000fd5b600082198211156122bc576122bc612293565b500190565b6020808252602c9082015260008051602061256d83398151915260408201526b19195b1959d85d1958d85b1b60a21b606082015260800190565b6020808252602c9082015260008051602061256d83398151915260408201526b6163746976652070726f787960a01b606082015260800190565b6020808252601f908201527f4152424b3a205061796d656e7420746f6b656e206e6f7420616c6c6f77656400604082015260600190565b600081600019048311821515161561238657612386612293565b500290565b6000826123a857634e487b7160e01b600052601260045260246000fd5b500490565b6020808252600e908201526d4152424b3a20476574204c65737360901b604082015260600190565b60006001600160801b038281168482168083038211156123f7576123f7612293565b01949350505050565b918252602082015260400190565b60008282101561242057612420612293565b500390565b6020808252600e908201526d4152424b3a20506179204c65737360901b604082015260600190565b60006020828403121561245f57600080fd5b813560ff81168114611f2a57600080fd5b60006020828403121561248257600080fd5b5051919050565b60005b838110156124a457818101518382015260200161248c565b83811115611db95750506000910152565b600082516124c7818460208701612489565b9190910192915050565b6000602082840312156124e357600080fd5b8151611f2a81611fdb565b6020808252602b908201527f496e697469616c697a61626c653a20636f6e7472616374206973206e6f74206960408201526a6e697469616c697a696e6760a81b606082015260800190565b6020815260008251806020840152612558816040850160208701612489565b601f01601f1916919091016040019291505056fe46756e6374696f6e206d7573742062652063616c6c6564207468726f75676820360894a13ba1a3210667c828492db98dca3e2076cc3735a920a3ca505d382bbcdf4b02da5c879b7326859498241ac3e7c6577d5742e4aea56697af520665b55c416464726573733a206c6f772d6c6576656c2064656c65676174652063616c6c206661696c6564a164736f6c6343000809000a",
  "devdoc": {
    "kind": "dev",
    "methods": {
      "addNewART(address,address)": {
        "details": "Add new type of ART token and the controller, only can be called by the owner",
        "params": {
          "artToken": "Token address of the ART to add",
          "controller": "Address of the controller of the ART token"
        }
      },
      "buyARTNative(address,uint256,bool)": {
        "details": "Buy the ART token, then offset the bought ART and mint a cliamte badge.",
        "params": {
          "amountART": "The amount of the ART token.                  if isExactPay is true, amountART means the minumum ART token to receive, which may be zero for no checking.                  if isExactPay is false, amountART is the amount of ART token to receive.",
          "isExactPay": "Which amount is the exact amount                  = true,  msg.value is the exact amount of the payment token to pay.                  = false, amountART is the exact amount of the ART token to receive.",
          "tokenART": "The address of the ART token. There may be serveral different ART tokens in AREC ecosystem."
        }
      },
      "changeARTOwner(address,address)": {
        "details": "Change/shift the controller of the ART token",
        "params": {
          "artToken": "Address of the ART token to change controller",
          "newController": "Address of the new controller"
        }
      },
      "changeSalePrice(address,address,uint256)": {
        "details": "Change the ART sale price based on the buyInToken. Price-zero means not-supporting",
        "params": {
          "artToken": "Address of the ART token to sell. The bank contract support multiple ART tokens.",
          "buyInToken": "Address of the payment token used to buy ART. ",
          "price": "Price of the ART token priced in payment token, 1 ART = X payment token.  "
        }
      },
      "constructor": {
        "custom:oz-upgrades-unsafe-allow": "constructor"
      },
      "depositART(address,uint256)": {
        "details": "Deposit various ART token to the bank, only callable by the controller.",
        "params": {
          "amountDeposit": "Amount of the ART to deposit.",
          "artToken": "Token address of the ART to deposit. "
        }
      },
      "owner()": {
        "details": "Returns the address of the current owner."
      },
      "proxiableUUID()": {
        "details": "Implementation of the ERC1822 {proxiableUUID} function. This returns the storage slot used by the implementation. It is used to validate that the this implementation remains valid after an upgrade. IMPORTANT: A proxy pointing at a proxiable contract should not be considered proxiable itself, because this risks bricking a proxy that upgrades to it, by delegating to itself until out of gas. Thus it is critical that this function revert if invoked through a proxy. This is guaranteed by the `notDelegated` modifier."
      },
      "renounceOwnership()": {
        "details": "Leaves the contract without owner. It will not be possible to call `onlyOwner` functions anymore. Can only be called by the current owner. NOTE: Renouncing ownership will leave the contract without an owner, thereby removing any functionality that is only available to the owner."
      },
      "setFundReceiver(address,address)": {
        "details": "Set the income receiver address",
        "params": {
          "artToken": "Address of the ART token to set receiver",
          "receiver": "Address of the receiver"
        }
      },
      "transferOwnership(address)": {
        "details": "Transfers ownership of the contract to a new account (`newOwner`). Can only be called by the current owner."
      },
      "upgradeTo(address)": {
        "details": "Upgrade the implementation of the proxy to `newImplementation`. Calls {_authorizeUpgrade}. Emits an {Upgraded} event."
      },
      "upgradeToAndCall(address,bytes)": {
        "details": "Upgrade the implementation of the proxy to `newImplementation`, and subsequently execute the function call encoded in `data`. Calls {_authorizeUpgrade}. Emits an {Upgraded} event."
      },
      "withdraw(address,address)": {
        "details": "Withdraw all the sales income",
        "params": {
          "artToken": "Address of the ART token to withdraw",
          "payToken": "Address of the payment token to withdraw"
        }
      }
    },
    "version": 1
  },
  "userdoc": {
    "kind": "user",
    "methods": {},
    "version": 1
  },
  "storageLayout": {
    "storage": [
      {
        "astId": 940,
        "contract": "contracts/ArkreenRECBank.sol:ArkreenRECBank",
        "label": "_initialized",
        "offset": 0,
        "slot": "0",
        "type": "t_uint8"
      },
      {
        "astId": 943,
        "contract": "contracts/ArkreenRECBank.sol:ArkreenRECBank",
        "label": "_initializing",
        "offset": 1,
        "slot": "0",
        "type": "t_bool"
      },
      {
        "astId": 3851,
        "contract": "contracts/ArkreenRECBank.sol:ArkreenRECBank",
        "label": "__gap",
        "offset": 0,
        "slot": "1",
        "type": "t_array(t_uint256)50_storage"
      },
      {
        "astId": 423,
        "contract": "contracts/ArkreenRECBank.sol:ArkreenRECBank",
        "label": "_owner",
        "offset": 0,
        "slot": "51",
        "type": "t_address"
      },
      {
        "astId": 543,
        "contract": "contracts/ArkreenRECBank.sol:ArkreenRECBank",
        "label": "__gap",
        "offset": 0,
        "slot": "52",
        "type": "t_array(t_uint256)49_storage"
      },
      {
        "astId": 922,
        "contract": "contracts/ArkreenRECBank.sol:ArkreenRECBank",
        "label": "__gap",
        "offset": 0,
        "slot": "101",
        "type": "t_array(t_uint256)50_storage"
      },
      {
        "astId": 1219,
        "contract": "contracts/ArkreenRECBank.sol:ArkreenRECBank",
        "label": "__gap",
        "offset": 0,
        "slot": "151",
        "type": "t_array(t_uint256)50_storage"
      },
      {
        "astId": 13643,
        "contract": "contracts/ArkreenRECBank.sol:ArkreenRECBank",
        "label": "tokenNative",
        "offset": 0,
        "slot": "201",
        "type": "t_address"
      },
      {
        "astId": 13647,
        "contract": "contracts/ArkreenRECBank.sol:ArkreenRECBank",
        "label": "forwarders",
        "offset": 0,
        "slot": "202",
        "type": "t_mapping(t_address,t_bool)"
      },
      {
        "astId": 13654,
        "contract": "contracts/ArkreenRECBank.sol:ArkreenRECBank",
        "label": "saleIncome",
        "offset": 0,
        "slot": "203",
        "type": "t_mapping(t_address,t_mapping(t_address,t_struct(IncomeInfo)13615_storage))"
      },
      {
        "astId": 13659,
        "contract": "contracts/ArkreenRECBank.sol:ArkreenRECBank",
        "label": "artSaleInfo",
        "offset": 0,
        "slot": "204",
        "type": "t_mapping(t_address,t_struct(SaleInfo)13624_storage)"
      }
    ],
    "types": {
      "t_address": {
        "encoding": "inplace",
        "label": "address",
        "numberOfBytes": "20"
      },
      "t_array(t_uint256)49_storage": {
        "base": "t_uint256",
        "encoding": "inplace",
        "label": "uint256[49]",
        "numberOfBytes": "1568"
      },
      "t_array(t_uint256)50_storage": {
        "base": "t_uint256",
        "encoding": "inplace",
        "label": "uint256[50]",
        "numberOfBytes": "1600"
      },
      "t_bool": {
        "encoding": "inplace",
        "label": "bool",
        "numberOfBytes": "1"
      },
      "t_mapping(t_address,t_bool)": {
        "encoding": "mapping",
        "key": "t_address",
        "label": "mapping(address => bool)",
        "numberOfBytes": "32",
        "value": "t_bool"
      },
      "t_mapping(t_address,t_mapping(t_address,t_struct(IncomeInfo)13615_storage))": {
        "encoding": "mapping",
        "key": "t_address",
        "label": "mapping(address => mapping(address => struct IncomeInfo))",
        "numberOfBytes": "32",
        "value": "t_mapping(t_address,t_struct(IncomeInfo)13615_storage)"
      },
      "t_mapping(t_address,t_struct(IncomeInfo)13615_storage)": {
        "encoding": "mapping",
        "key": "t_address",
        "label": "mapping(address => struct IncomeInfo)",
        "numberOfBytes": "32",
        "value": "t_struct(IncomeInfo)13615_storage"
      },
      "t_mapping(t_address,t_struct(SaleInfo)13624_storage)": {
        "encoding": "mapping",
        "key": "t_address",
        "label": "mapping(address => struct SaleInfo)",
        "numberOfBytes": "32",
        "value": "t_struct(SaleInfo)13624_storage"
      },
      "t_struct(IncomeInfo)13615_storage": {
        "encoding": "inplace",
        "label": "struct IncomeInfo",
        "members": [
          {
            "astId": 13612,
            "contract": "contracts/ArkreenRECBank.sol:ArkreenRECBank",
            "label": "priceForSale",
            "offset": 0,
            "slot": "0",
            "type": "t_uint128"
          },
          {
            "astId": 13614,
            "contract": "contracts/ArkreenRECBank.sol:ArkreenRECBank",
            "label": "amountReceived",
            "offset": 16,
            "slot": "0",
            "type": "t_uint128"
          }
        ],
        "numberOfBytes": "32"
      },
      "t_struct(SaleInfo)13624_storage": {
        "encoding": "inplace",
        "label": "struct SaleInfo",
        "members": [
          {
            "astId": 13617,
            "contract": "contracts/ArkreenRECBank.sol:ArkreenRECBank",
            "label": "controller",
            "offset": 0,
            "slot": "0",
            "type": "t_address"
          },
          {
            "astId": 13619,
            "contract": "contracts/ArkreenRECBank.sol:ArkreenRECBank",
            "label": "fundReceiver",
            "offset": 0,
            "slot": "1",
            "type": "t_address"
          },
          {
            "astId": 13621,
            "contract": "contracts/ArkreenRECBank.sol:ArkreenRECBank",
            "label": "amountDeposited",
            "offset": 0,
            "slot": "2",
            "type": "t_uint128"
          },
          {
            "astId": 13623,
            "contract": "contracts/ArkreenRECBank.sol:ArkreenRECBank",
            "label": "amountSold",
            "offset": 16,
            "slot": "2",
            "type": "t_uint128"
          }
        ],
        "numberOfBytes": "96"
      },
      "t_uint128": {
        "encoding": "inplace",
        "label": "uint128",
        "numberOfBytes": "16"
      },
      "t_uint256": {
        "encoding": "inplace",
        "label": "uint256",
        "numberOfBytes": "32"
      },
      "t_uint8": {
        "encoding": "inplace",
        "label": "uint8",
        "numberOfBytes": "1"
      }
    }
  }
}