{
  "address": "0x9642086fF6748329b0e08583E703E98499498EE2",
  "abi": [
    {
      "inputs": [],
      "stateMutability": "nonpayable",
      "type": "constructor"
    },
    {
      "anonymous": false,
      "inputs": [
        {
          "indexed": false,
          "internalType": "address",
          "name": "previousAdmin",
          "type": "address"
        },
        {
          "indexed": false,
          "internalType": "address",
          "name": "newAdmin",
          "type": "address"
        }
      ],
      "name": "AdminChanged",
      "type": "event"
    },
    {
      "anonymous": false,
      "inputs": [
        {
          "indexed": true,
          "internalType": "address",
          "name": "owner",
          "type": "address"
        },
        {
          "indexed": true,
          "internalType": "address",
          "name": "approved",
          "type": "address"
        },
        {
          "indexed": true,
          "internalType": "uint256",
          "name": "tokenId",
          "type": "uint256"
        }
      ],
      "name": "Approval",
      "type": "event"
    },
    {
      "anonymous": false,
      "inputs": [
        {
          "indexed": true,
          "internalType": "address",
          "name": "owner",
          "type": "address"
        },
        {
          "indexed": true,
          "internalType": "address",
          "name": "operator",
          "type": "address"
        },
        {
          "indexed": false,
          "internalType": "bool",
          "name": "approved",
          "type": "bool"
        }
      ],
      "name": "ApprovalForAll",
      "type": "event"
    },
    {
      "anonymous": false,
      "inputs": [
        {
          "indexed": true,
          "internalType": "address",
          "name": "beacon",
          "type": "address"
        }
      ],
      "name": "BeaconUpgraded",
      "type": "event"
    },
    {
      "anonymous": false,
      "inputs": [
        {
          "indexed": false,
          "internalType": "uint256",
          "name": "height",
          "type": "uint256"
        },
        {
          "indexed": false,
          "internalType": "uint256",
          "name": "ARTCount",
          "type": "uint256"
        },
        {
          "indexed": false,
          "internalType": "address",
          "name": "beneficiary",
          "type": "address"
        },
        {
          "indexed": false,
          "internalType": "uint8",
          "name": "greenType",
          "type": "uint8"
        }
      ],
      "name": "GreenBitCoin",
      "type": "event"
    },
    {
      "anonymous": false,
      "inputs": [
        {
          "indexed": false,
          "internalType": "uint8",
          "name": "version",
          "type": "uint8"
        }
      ],
      "name": "Initialized",
      "type": "event"
    },
    {
      "anonymous": false,
      "inputs": [
        {
          "indexed": false,
          "internalType": "address",
          "name": "openner",
          "type": "address"
        },
        {
          "indexed": false,
          "internalType": "uint256",
          "name": "tokenID",
          "type": "uint256"
        },
        {
          "indexed": false,
          "internalType": "uint256",
          "name": "blockNumber",
          "type": "uint256"
        }
      ],
      "name": "OpenBox",
      "type": "event"
    },
    {
      "anonymous": false,
      "inputs": [
        {
          "indexed": true,
          "internalType": "address",
          "name": "previousOwner",
          "type": "address"
        },
        {
          "indexed": true,
          "internalType": "address",
          "name": "newOwner",
          "type": "address"
        }
      ],
      "name": "OwnershipTransferred",
      "type": "event"
    },
    {
      "anonymous": false,
      "inputs": [
        {
          "indexed": false,
          "internalType": "uint256[]",
          "name": "revealList",
          "type": "uint256[]"
        },
        {
          "indexed": false,
          "internalType": "bool[]",
          "name": "wonList",
          "type": "bool[]"
        }
      ],
      "name": "RevealBoxes",
      "type": "event"
    },
    {
      "anonymous": false,
      "inputs": [
        {
          "indexed": true,
          "internalType": "address",
          "name": "from",
          "type": "address"
        },
        {
          "indexed": true,
          "internalType": "address",
          "name": "to",
          "type": "address"
        },
        {
          "indexed": true,
          "internalType": "uint256",
          "name": "tokenId",
          "type": "uint256"
        }
      ],
      "name": "Transfer",
      "type": "event"
    },
    {
      "anonymous": false,
      "inputs": [
        {
          "indexed": true,
          "internalType": "address",
          "name": "implementation",
          "type": "address"
        }
      ],
      "name": "Upgraded",
      "type": "event"
    },
    {
      "inputs": [],
      "name": "DOMAIN_SEPARATOR",
      "outputs": [
        {
          "internalType": "bytes32",
          "name": "",
          "type": "bytes32"
        }
      ],
      "stateMutability": "view",
      "type": "function"
    },
    {
      "inputs": [
        {
          "internalType": "address",
          "name": "to",
          "type": "address"
        },
        {
          "internalType": "uint256",
          "name": "tokenId",
          "type": "uint256"
        }
      ],
      "name": "approve",
      "outputs": [],
      "stateMutability": "nonpayable",
      "type": "function"
    },
    {
      "inputs": [
        {
          "internalType": "address[]",
          "name": "tokens",
          "type": "address[]"
        }
      ],
      "name": "approveBuilder",
      "outputs": [],
      "stateMutability": "nonpayable",
      "type": "function"
    },
    {
      "inputs": [],
      "name": "arkreenBuilder",
      "outputs": [
        {
          "internalType": "address",
          "name": "",
          "type": "address"
        }
      ],
      "stateMutability": "view",
      "type": "function"
    },
    {
      "inputs": [
        {
          "components": [
            {
              "internalType": "uint128",
              "name": "height",
              "type": "uint128"
            },
            {
              "internalType": "uint128",
              "name": "ARTCount",
              "type": "uint128"
            },
            {
              "internalType": "address",
              "name": "beneficiary",
              "type": "address"
            },
            {
              "internalType": "uint8",
              "name": "greenType",
              "type": "uint8"
            },
            {
              "internalType": "string",
              "name": "blockTime",
              "type": "string"
            },
            {
              "internalType": "string",
              "name": "energyStr",
              "type": "string"
            }
          ],
          "internalType": "struct GreenBTCInfo",
          "name": "gbtc",
          "type": "tuple"
        },
        {
          "components": [
            {
              "internalType": "uint8",
              "name": "v",
              "type": "uint8"
            },
            {
              "internalType": "bytes32",
              "name": "r",
              "type": "bytes32"
            },
            {
              "internalType": "bytes32",
              "name": "s",
              "type": "bytes32"
            }
          ],
          "internalType": "struct Sig",
          "name": "sig",
          "type": "tuple"
        },
        {
          "components": [
            {
              "internalType": "address",
              "name": "beneficiary",
              "type": "address"
            },
            {
              "internalType": "string",
              "name": "offsetEntityID",
              "type": "string"
            },
            {
              "internalType": "string",
              "name": "beneficiaryID",
              "type": "string"
            },
            {
              "internalType": "string",
              "name": "offsetMessage",
              "type": "string"
            }
          ],
          "internalType": "struct BadgeInfo",
          "name": "badgeInfo",
          "type": "tuple"
        },
        {
          "internalType": "address",
          "name": "tokenART",
          "type": "address"
        },
        {
          "internalType": "uint256",
          "name": "deadline",
          "type": "uint256"
        }
      ],
      "name": "authMintGreenBTCWithART",
      "outputs": [],
      "stateMutability": "nonpayable",
      "type": "function"
    },
    {
      "inputs": [
        {
          "components": [
            {
              "internalType": "uint128",
              "name": "height",
              "type": "uint128"
            },
            {
              "internalType": "uint128",
              "name": "ARTCount",
              "type": "uint128"
            },
            {
              "internalType": "address",
              "name": "beneficiary",
              "type": "address"
            },
            {
              "internalType": "uint8",
              "name": "greenType",
              "type": "uint8"
            },
            {
              "internalType": "string",
              "name": "blockTime",
              "type": "string"
            },
            {
              "internalType": "string",
              "name": "energyStr",
              "type": "string"
            }
          ],
          "internalType": "struct GreenBTCInfo",
          "name": "gbtc",
          "type": "tuple"
        },
        {
          "components": [
            {
              "internalType": "uint8",
              "name": "v",
              "type": "uint8"
            },
            {
              "internalType": "bytes32",
              "name": "r",
              "type": "bytes32"
            },
            {
              "internalType": "bytes32",
              "name": "s",
              "type": "bytes32"
            }
          ],
          "internalType": "struct Sig",
          "name": "sig",
          "type": "tuple"
        },
        {
          "components": [
            {
              "internalType": "address",
              "name": "beneficiary",
              "type": "address"
            },
            {
              "internalType": "string",
              "name": "offsetEntityID",
              "type": "string"
            },
            {
              "internalType": "string",
              "name": "beneficiaryID",
              "type": "string"
            },
            {
              "internalType": "string",
              "name": "offsetMessage",
              "type": "string"
            }
          ],
          "internalType": "struct BadgeInfo",
          "name": "badgeInfo",
          "type": "tuple"
        },
        {
          "components": [
            {
              "internalType": "address",
              "name": "token",
              "type": "address"
            },
            {
              "internalType": "uint256",
              "name": "amount",
              "type": "uint256"
            }
          ],
          "internalType": "struct PayInfo",
          "name": "payInfo",
          "type": "tuple"
        },
        {
          "internalType": "uint256",
          "name": "deadline",
          "type": "uint256"
        }
      ],
      "name": "authMintGreenBTCWithApprove",
      "outputs": [],
      "stateMutability": "nonpayable",
      "type": "function"
    },
    {
      "inputs": [
        {
          "components": [
            {
              "internalType": "uint128",
              "name": "height",
              "type": "uint128"
            },
            {
              "internalType": "uint128",
              "name": "ARTCount",
              "type": "uint128"
            },
            {
              "internalType": "address",
              "name": "beneficiary",
              "type": "address"
            },
            {
              "internalType": "uint8",
              "name": "greenType",
              "type": "uint8"
            },
            {
              "internalType": "string",
              "name": "blockTime",
              "type": "string"
            },
            {
              "internalType": "string",
              "name": "energyStr",
              "type": "string"
            }
          ],
          "internalType": "struct GreenBTCInfo",
          "name": "gbtc",
          "type": "tuple"
        },
        {
          "components": [
            {
              "internalType": "uint8",
              "name": "v",
              "type": "uint8"
            },
            {
              "internalType": "bytes32",
              "name": "r",
              "type": "bytes32"
            },
            {
              "internalType": "bytes32",
              "name": "s",
              "type": "bytes32"
            }
          ],
          "internalType": "struct Sig",
          "name": "sig",
          "type": "tuple"
        },
        {
          "components": [
            {
              "internalType": "address",
              "name": "beneficiary",
              "type": "address"
            },
            {
              "internalType": "string",
              "name": "offsetEntityID",
              "type": "string"
            },
            {
              "internalType": "string",
              "name": "beneficiaryID",
              "type": "string"
            },
            {
              "internalType": "string",
              "name": "offsetMessage",
              "type": "string"
            }
          ],
          "internalType": "struct BadgeInfo",
          "name": "badgeInfo",
          "type": "tuple"
        },
        {
          "internalType": "uint256",
          "name": "deadline",
          "type": "uint256"
        }
      ],
      "name": "authMintGreenBTCWithNative",
      "outputs": [],
      "stateMutability": "payable",
      "type": "function"
    },
    {
      "inputs": [],
      "name": "authorizer",
      "outputs": [
        {
          "internalType": "address",
          "name": "",
          "type": "address"
        }
      ],
      "stateMutability": "view",
      "type": "function"
    },
    {
      "inputs": [
        {
          "internalType": "address",
          "name": "owner",
          "type": "address"
        }
      ],
      "name": "balanceOf",
      "outputs": [
        {
          "internalType": "uint256",
          "name": "",
          "type": "uint256"
        }
      ],
      "stateMutability": "view",
      "type": "function"
    },
    {
      "inputs": [
        {
          "internalType": "uint256",
          "name": "",
          "type": "uint256"
        }
      ],
      "name": "dataGBTC",
      "outputs": [
        {
          "internalType": "uint128",
          "name": "height",
          "type": "uint128"
        },
        {
          "internalType": "uint128",
          "name": "ARTCount",
          "type": "uint128"
        },
        {
          "internalType": "address",
          "name": "beneficiary",
          "type": "address"
        },
        {
          "internalType": "uint8",
          "name": "greenType",
          "type": "uint8"
        },
        {
          "internalType": "string",
          "name": "blockTime",
          "type": "string"
        },
        {
          "internalType": "string",
          "name": "energyStr",
          "type": "string"
        }
      ],
      "stateMutability": "view",
      "type": "function"
    },
    {
      "inputs": [
        {
          "internalType": "uint256",
          "name": "",
          "type": "uint256"
        }
      ],
      "name": "dataNFT",
      "outputs": [
        {
          "internalType": "address",
          "name": "owner",
          "type": "address"
        },
        {
          "internalType": "uint64",
          "name": "blockHeight",
          "type": "uint64"
        },
        {
          "internalType": "bool",
          "name": "open",
          "type": "bool"
        },
        {
          "internalType": "bool",
          "name": "reveal",
          "type": "bool"
        },
        {
          "internalType": "bool",
          "name": "won",
          "type": "bool"
        },
        {
          "internalType": "uint256",
          "name": "hash",
          "type": "uint256"
        }
      ],
      "stateMutability": "view",
      "type": "function"
    },
    {
      "inputs": [
        {
          "internalType": "uint256",
          "name": "tokenId",
          "type": "uint256"
        }
      ],
      "name": "getApproved",
      "outputs": [
        {
          "internalType": "address",
          "name": "",
          "type": "address"
        }
      ],
      "stateMutability": "view",
      "type": "function"
    },
    {
      "inputs": [],
      "name": "getOpeningBoxList",
      "outputs": [
        {
          "components": [
            {
              "internalType": "uint64",
              "name": "tokenID",
              "type": "uint64"
            },
            {
              "internalType": "uint64",
              "name": "openHeight",
              "type": "uint64"
            }
          ],
          "internalType": "struct OpenInfo[]",
          "name": "",
          "type": "tuple[]"
        }
      ],
      "stateMutability": "view",
      "type": "function"
    },
    {
      "inputs": [],
      "name": "getOvertimeBoxList",
      "outputs": [
        {
          "components": [
            {
              "internalType": "uint64",
              "name": "tokenID",
              "type": "uint64"
            },
            {
              "internalType": "uint64",
              "name": "openHeight",
              "type": "uint64"
            }
          ],
          "internalType": "struct OpenInfo[]",
          "name": "",
          "type": "tuple[]"
        }
      ],
      "stateMutability": "view",
      "type": "function"
    },
    {
      "inputs": [
        {
          "internalType": "address",
          "name": "tokenART",
          "type": "address"
        },
        {
          "internalType": "address",
          "name": "tokenPay",
          "type": "address"
        }
      ],
      "name": "getPrice",
      "outputs": [
        {
          "internalType": "uint128",
          "name": "price",
          "type": "uint128"
        },
        {
          "internalType": "uint128",
          "name": "received",
          "type": "uint128"
        }
      ],
      "stateMutability": "view",
      "type": "function"
    },
    {
      "inputs": [],
      "name": "greenBtcImage",
      "outputs": [
        {
          "internalType": "address",
          "name": "",
          "type": "address"
        }
      ],
      "stateMutability": "view",
      "type": "function"
    },
    {
      "inputs": [
        {
          "internalType": "address",
          "name": "authorizer_",
          "type": "address"
        },
        {
          "internalType": "address",
          "name": "builder",
          "type": "address"
        },
        {
          "internalType": "address",
          "name": "cART",
          "type": "address"
        },
        {
          "internalType": "address",
          "name": "native",
          "type": "address"
        }
      ],
      "name": "initialize",
      "outputs": [],
      "stateMutability": "nonpayable",
      "type": "function"
    },
    {
      "inputs": [
        {
          "internalType": "address",
          "name": "owner",
          "type": "address"
        },
        {
          "internalType": "address",
          "name": "operator",
          "type": "address"
        }
      ],
      "name": "isApprovedForAll",
      "outputs": [
        {
          "internalType": "bool",
          "name": "",
          "type": "bool"
        }
      ],
      "stateMutability": "view",
      "type": "function"
    },
    {
      "inputs": [
        {
          "internalType": "uint256",
          "name": "tokenID",
          "type": "uint256"
        }
      ],
      "name": "isUnPacking",
      "outputs": [
        {
          "internalType": "bool",
          "name": "",
          "type": "bool"
        },
        {
          "internalType": "bool",
          "name": "",
          "type": "bool"
        }
      ],
      "stateMutability": "view",
      "type": "function"
    },
    {
      "inputs": [],
      "name": "manager",
      "outputs": [
        {
          "internalType": "address",
          "name": "",
          "type": "address"
        }
      ],
      "stateMutability": "view",
      "type": "function"
    },
    {
      "inputs": [
        {
          "internalType": "address[]",
          "name": "tokenARTList",
          "type": "address[]"
        },
        {
          "internalType": "bool",
          "name": "addOrRemove",
          "type": "bool"
        }
      ],
      "name": "mangeARTTokens",
      "outputs": [],
      "stateMutability": "nonpayable",
      "type": "function"
    },
    {
      "inputs": [],
      "name": "name",
      "outputs": [
        {
          "internalType": "string",
          "name": "",
          "type": "string"
        }
      ],
      "stateMutability": "view",
      "type": "function"
    },
    {
      "inputs": [
        {
          "internalType": "uint256",
          "name": "tokenID",
          "type": "uint256"
        }
      ],
      "name": "openBox",
      "outputs": [],
      "stateMutability": "nonpayable",
      "type": "function"
    },
    {
      "inputs": [],
      "name": "owner",
      "outputs": [
        {
          "internalType": "address",
          "name": "",
          "type": "address"
        }
      ],
      "stateMutability": "view",
      "type": "function"
    },
    {
      "inputs": [
        {
          "internalType": "uint256",
          "name": "tokenId",
          "type": "uint256"
        }
      ],
      "name": "ownerOf",
      "outputs": [
        {
          "internalType": "address",
          "name": "",
          "type": "address"
        }
      ],
      "stateMutability": "view",
      "type": "function"
    },
    {
      "inputs": [],
      "name": "proxiableUUID",
      "outputs": [
        {
          "internalType": "bytes32",
          "name": "",
          "type": "bytes32"
        }
      ],
      "stateMutability": "view",
      "type": "function"
    },
    {
      "inputs": [],
      "name": "renounceOwnership",
      "outputs": [],
      "stateMutability": "nonpayable",
      "type": "function"
    },
    {
      "inputs": [],
      "name": "revealBoxes",
      "outputs": [],
      "stateMutability": "nonpayable",
      "type": "function"
    },
    {
      "inputs": [
        {
          "internalType": "uint256[]",
          "name": "tokenList",
          "type": "uint256[]"
        },
        {
          "internalType": "uint256[]",
          "name": "hashList",
          "type": "uint256[]"
        }
      ],
      "name": "revealBoxesWithHash",
      "outputs": [],
      "stateMutability": "nonpayable",
      "type": "function"
    },
    {
      "inputs": [
        {
          "internalType": "address",
          "name": "from",
          "type": "address"
        },
        {
          "internalType": "address",
          "name": "to",
          "type": "address"
        },
        {
          "internalType": "uint256",
          "name": "tokenId",
          "type": "uint256"
        }
      ],
      "name": "safeTransferFrom",
      "outputs": [],
      "stateMutability": "nonpayable",
      "type": "function"
    },
    {
      "inputs": [
        {
          "internalType": "address",
          "name": "from",
          "type": "address"
        },
        {
          "internalType": "address",
          "name": "to",
          "type": "address"
        },
        {
          "internalType": "uint256",
          "name": "tokenId",
          "type": "uint256"
        },
        {
          "internalType": "bytes",
          "name": "data",
          "type": "bytes"
        }
      ],
      "name": "safeTransferFrom",
      "outputs": [],
      "stateMutability": "nonpayable",
      "type": "function"
    },
    {
      "inputs": [
        {
          "internalType": "address",
          "name": "operator",
          "type": "address"
        },
        {
          "internalType": "bool",
          "name": "approved",
          "type": "bool"
        }
      ],
      "name": "setApprovalForAll",
      "outputs": [],
      "stateMutability": "nonpayable",
      "type": "function"
    },
    {
      "inputs": [
        {
          "internalType": "address",
          "name": "newAuthAddress",
          "type": "address"
        }
      ],
      "name": "setAuthorizer",
      "outputs": [],
      "stateMutability": "nonpayable",
      "type": "function"
    },
    {
      "inputs": [
        {
          "internalType": "address",
          "name": "newCARTToken",
          "type": "address"
        }
      ],
      "name": "setCARTContract",
      "outputs": [],
      "stateMutability": "nonpayable",
      "type": "function"
    },
    {
      "inputs": [
        {
          "internalType": "address",
          "name": "newImageContract",
          "type": "address"
        }
      ],
      "name": "setImageContract",
      "outputs": [],
      "stateMutability": "nonpayable",
      "type": "function"
    },
    {
      "inputs": [
        {
          "internalType": "uint256",
          "name": "tokenId",
          "type": "uint256"
        }
      ],
      "name": "setLuck",
      "outputs": [],
      "stateMutability": "nonpayable",
      "type": "function"
    },
    {
      "inputs": [
        {
          "internalType": "address",
          "name": "newManager",
          "type": "address"
        }
      ],
      "name": "setManager",
      "outputs": [],
      "stateMutability": "nonpayable",
      "type": "function"
    },
    {
      "inputs": [
        {
          "internalType": "bytes4",
          "name": "interfaceId",
          "type": "bytes4"
        }
      ],
      "name": "supportsInterface",
      "outputs": [
        {
          "internalType": "bool",
          "name": "",
          "type": "bool"
        }
      ],
      "stateMutability": "view",
      "type": "function"
    },
    {
      "inputs": [],
      "name": "symbol",
      "outputs": [
        {
          "internalType": "string",
          "name": "",
          "type": "string"
        }
      ],
      "stateMutability": "view",
      "type": "function"
    },
    {
      "inputs": [
        {
          "internalType": "uint256",
          "name": "index",
          "type": "uint256"
        }
      ],
      "name": "tokenByIndex",
      "outputs": [
        {
          "internalType": "uint256",
          "name": "",
          "type": "uint256"
        }
      ],
      "stateMutability": "view",
      "type": "function"
    },
    {
      "inputs": [],
      "name": "tokenCART",
      "outputs": [
        {
          "internalType": "address",
          "name": "",
          "type": "address"
        }
      ],
      "stateMutability": "view",
      "type": "function"
    },
    {
      "inputs": [],
      "name": "tokenNative",
      "outputs": [
        {
          "internalType": "address",
          "name": "",
          "type": "address"
        }
      ],
      "stateMutability": "view",
      "type": "function"
    },
    {
      "inputs": [
        {
          "internalType": "address",
          "name": "owner",
          "type": "address"
        },
        {
          "internalType": "uint256",
          "name": "index",
          "type": "uint256"
        }
      ],
      "name": "tokenOfOwnerByIndex",
      "outputs": [
        {
          "internalType": "uint256",
          "name": "",
          "type": "uint256"
        }
      ],
      "stateMutability": "view",
      "type": "function"
    },
    {
      "inputs": [
        {
          "internalType": "uint256",
          "name": "tokenId",
          "type": "uint256"
        }
      ],
      "name": "tokenURI",
      "outputs": [
        {
          "internalType": "string",
          "name": "",
          "type": "string"
        }
      ],
      "stateMutability": "view",
      "type": "function"
    },
    {
      "inputs": [],
      "name": "totalSupply",
      "outputs": [
        {
          "internalType": "uint256",
          "name": "",
          "type": "uint256"
        }
      ],
      "stateMutability": "view",
      "type": "function"
    },
    {
      "inputs": [
        {
          "internalType": "address",
          "name": "from",
          "type": "address"
        },
        {
          "internalType": "address",
          "name": "to",
          "type": "address"
        },
        {
          "internalType": "uint256",
          "name": "tokenId",
          "type": "uint256"
        }
      ],
      "name": "transferFrom",
      "outputs": [],
      "stateMutability": "nonpayable",
      "type": "function"
    },
    {
      "inputs": [
        {
          "internalType": "address",
          "name": "newOwner",
          "type": "address"
        }
      ],
      "name": "transferOwnership",
      "outputs": [],
      "stateMutability": "nonpayable",
      "type": "function"
    },
    {
      "inputs": [
        {
          "internalType": "address",
          "name": "newImplementation",
          "type": "address"
        }
      ],
      "name": "upgradeTo",
      "outputs": [],
      "stateMutability": "nonpayable",
      "type": "function"
    },
    {
      "inputs": [
        {
          "internalType": "address",
          "name": "newImplementation",
          "type": "address"
        },
        {
          "internalType": "bytes",
          "name": "data",
          "type": "bytes"
        }
      ],
      "name": "upgradeToAndCall",
      "outputs": [],
      "stateMutability": "payable",
      "type": "function"
    },
    {
      "inputs": [
        {
          "internalType": "address",
          "name": "",
          "type": "address"
        }
      ],
      "name": "whiteARTList",
      "outputs": [
        {
          "internalType": "bool",
          "name": "",
          "type": "bool"
        }
      ],
      "stateMutability": "view",
      "type": "function"
    }
  ],
  "transactionHash": "0x20c382f926634439206e40232fe8dea08952ba0191827943bfcc9fcbdd5183fa",
  "args": [],
  "numDeployments": 2,
  "solcInputHash": "ed770fc75970c9030d052e470256a95b",
  "bytecode": "0x60a0604052306080523480156200001557600080fd5b506200002062000026565b620000e8565b600054610100900460ff1615620000935760405162461bcd60e51b815260206004820152602760248201527f496e697469616c697a61626c653a20636f6e747261637420697320696e697469604482015266616c697a696e6760c81b606482015260840160405180910390fd5b60005460ff9081161015620000e6576000805460ff191660ff9081179091556040519081527f7f26b83ff96e1f2b6a682f133852f6798a09c465da95921460cefb38474024989060200160405180910390a15b565b608051615cc662000120600039600081816112e901528181611329015281816114ed0152818161152d01526118510152615cc66000f3fe6080604052600436106102395760003560e01c806301ffc9a71461023e578063058a628f1461027357806306d8a5881461029557806306fdde03146102a8578063081812fc146102ca578063095ea7b31461030257806318160ddd1461032257806323b872dd146103425780632de65919146103625780632f745c59146103775780633644e515146103975780633659cfe6146103ae5780633d443382146103ce57806342842e0e146103ee578063481c6a751461040e5780634ac7ceaa1461042f5780634f1ef2861461044f5780634f6ccce714610462578063508899721461048257806351b44baf146104a257806352d1902d146104c25780636352211e146104d757806368f50b8a146104f757806370a0823114610518578063715018a6146105385780637f9a105c1461054d57806387bbc4981461056d5780638b95e5071461058f5780638da5cb5b146105af57806395d89b41146105c4578063a22cb465146105d9578063ac41865a146105f9578063b1e5e2b714610639578063b88d4fde14610659578063ba43b8b114610679578063bcb56ae21461068e578063c360f55c146106ae578063c87b56dd146106cf578063cda4498e146106ef578063cf27fb3c1461070f578063d09edf3114610740578063d0ebdbe714610761578063e0dce49e14610781578063e3639229146107a2578063e985e9c5146107d9578063f08380fc146107f9578063f2fde38b1461081a578063f78c94581461083a578063f8c8765e1461086c578063fb253b321461088c575b600080fd5b34801561024a57600080fd5b5061025e61025936600461444b565b610946565b60405190151581526020015b60405180910390f35b34801561027f57600080fd5b5061029361028e36600461447d565b610971565b005b6102936102a33660046144d6565b6109ee565b3480156102b457600080fd5b506102bd610c01565b60405161026a91906145aa565b3480156102d657600080fd5b506102ea6102e53660046145bd565b610c93565b6040516001600160a01b03909116815260200161026a565b34801561030e57600080fd5b5061029361031d3660046145d6565b610cba565b34801561032e57600080fd5b5061012f545b60405190815260200161026a565b34801561034e57600080fd5b5061029361035d366004614602565b610dd0565b34801561036e57600080fd5b50610293610e01565b34801561038357600080fd5b506103346103923660046145d6565b611247565b3480156103a357600080fd5b5061033461015f5481565b3480156103ba57600080fd5b506102936103c936600461447d565b6112de565b3480156103da57600080fd5b506102936103e93660046145bd565b6113a7565b3480156103fa57600080fd5b50610293610409366004614602565b6113f4565b34801561041a57600080fd5b50610160546102ea906001600160a01b031681565b34801561043b57600080fd5b5061029361044a36600461468e565b61140f565b61029361045d366004614786565b6114e2565b34801561046e57600080fd5b5061033461047d3660046145bd565b61159c565b34801561048e57600080fd5b5061029361049d3660046147d5565b611631565b3480156104ae57600080fd5b506102936104bd36600461447d565b6117d0565b3480156104ce57600080fd5b50610334611844565b3480156104e357600080fd5b506102ea6104f23660046145bd565b6118f2565b34801561050357600080fd5b50610165546102ea906001600160a01b031681565b34801561052457600080fd5b5061033461053336600461447d565b611927565b34801561054457600080fd5b506102936119ad565b34801561055957600080fd5b5061029361056836600461447d565b6119c1565b34801561057957600080fd5b50610582611a35565b60405161026a9190614870565b34801561059b57600080fd5b506102936105aa3660046148cc565b611aac565b3480156105bb57600080fd5b506102ea611f03565b3480156105d057600080fd5b506102bd611f12565b3480156105e557600080fd5b506102936105f4366004614945565b611f21565b34801561060557600080fd5b5061061961061436600461497e565b611f2c565b604080516001600160801b0393841681529290911660208301520161026a565b34801561064557600080fd5b506102936106543660046145bd565b612048565b34801561066557600080fd5b506102936106743660046149ac565b6121dd565b34801561068557600080fd5b50610582612215565b34801561069a57600080fd5b506102936106a9366004614a17565b612282565b3480156106ba57600080fd5b50610164546102ea906001600160a01b031681565b3480156106db57600080fd5b506102bd6106ea3660046145bd565b6123a9565b3480156106fb57600080fd5b5061029361070a366004614aa6565b6126a0565b34801561071b57600080fd5b5061025e61072a36600461447d565b61016a6020526000908152604090205460ff1681565b34801561074c57600080fd5b50610161546102ea906001600160a01b031681565b34801561076d57600080fd5b5061029361077c36600461447d565b612793565b34801561078d57600080fd5b50610163546102ea906001600160a01b031681565b3480156107ae57600080fd5b506107c26107bd3660046145bd565b6127e4565b60408051921515835290151560208301520161026a565b3480156107e557600080fd5b5061025e6107f436600461497e565b612838565b34801561080557600080fd5b50610162546102ea906001600160a01b031681565b34801561082657600080fd5b5061029361083536600461447d565b612867565b34801561084657600080fd5b5061085a6108553660046145bd565b6128dd565b60405161026a96959493929190614afc565b34801561087857600080fd5b50610293610887366004614b5f565b612a41565b34801561089857600080fd5b506108ff6108a73660046145bd565b61016960205260009081526040902080546001909101546001600160a01b038216916001600160401b03600160a01b8204169160ff600160e01b8304811692600160e81b8104821692600160f01b9091049091169086565b604080516001600160a01b0390971687526001600160401b0390951660208701529215159385019390935215156060840152901515608083015260a082015260c00161026a565b60006001600160e01b0319821663780e9d6360e01b148061096b575061096b82612cdb565b92915050565b610160546001600160a01b031633146109a55760405162461bcd60e51b815260040161099c90614bbb565b60405180910390fd5b6001600160a01b0381166109cb5760405162461bcd60e51b815260040161099c90614be6565b61016180546001600160a01b0319166001600160a01b0392909216919091179055565b8042811015610a0f5760405162461bcd60e51b815260040161099c90614c12565b6101686000610a216020880188614c4e565b6001600160801b039081168252602082019290925260400160002054600160801b90041615610a625760405162461bcd60e51b815260040161099c90614c6b565b610a6c8585612d2b565b61016560009054906101000a90046001600160a01b03166001600160a01b031663d0e30db0346040518263ffffffff1660e01b81526004016000604051808303818588803b158015610abd57600080fd5b505af1158015610ad1573d6000803e3d6000fd5b505061016554610164546003945060009350638d7fcefd92506001600160a01b03918216911634610b0860408c0160208d01614c4e565b86898b604051602401610b219796959493929190614d92565b6040516020818303038152906040529060e01b6020820180516001600160e01b0383818316178352505050509050610b8b81886040016020810190610b66919061447d565b604051602001610b77929190614dfe565b604051602081830303815290604052612eee565b610b9487612fc4565b600080516020615c9a833981519152610bb06020890189614c4e565b610bc060408a0160208b01614c4e565b610bd060608b0160408c0161447d565b610be060808c0160608d01614e3f565b604051610bf09493929190614e5c565b60405180910390a150505050505050565b606060fb8054610c1090614e90565b80601f0160208091040260200160405190810160405280929190818152602001828054610c3c90614e90565b8015610c895780601f10610c5e57610100808354040283529160200191610c89565b820191906000526020600020905b815481529060010190602001808311610c6c57829003601f168201915b5050505050905090565b6000610c9e8261315d565b50600090815260ff60205260409020546001600160a01b031690565b6000610cc5826118f2565b9050806001600160a01b0316836001600160a01b03161415610d335760405162461bcd60e51b815260206004820152602160248201527f4552433732313a20617070726f76616c20746f2063757272656e74206f776e656044820152603960f91b606482015260840161099c565b336001600160a01b0382161480610d4f5750610d4f8133612838565b610dc15760405162461bcd60e51b815260206004820152603e60248201527f4552433732313a20617070726f76652063616c6c6572206973206e6f7420746f60448201527f6b656e206f776e6572206e6f7220617070726f76656420666f7220616c6c0000606482015260840161099c565b610dcb8383613182565b505050565b610dda33826131f0565b610df65760405162461bcd60e51b815260040161099c90614ec5565b610dcb83838361324f565b6101665480610e455760405162461bcd60e51b815260206004820152601060248201526f11d09510ce88115b5c1d1e48131a5cdd60821b604482015260640161099c565b6000816001600160401b03811115610e5f57610e5f6146c3565b604051908082528060200260200182016040528015610e88578160200160208202803683370190505b5090506000826001600160401b03811115610ea557610ea56146c3565b604051908082528060200260200182016040528015610ece578160200160208202803683370190505b5090506000836001600160401b03811115610eeb57610eeb6146c3565b604051908082528060200260200182016040528015610f3057816020015b6040805180820190915260008082526020820152815260200190600190039081610f095790505b50905060008060005b868110156111775760006101668281548110610f5757610f57614f13565b60009182526020808320604080518082019091529201546001600160401b03808216808552600160401b90920416918301829052919350909190610f9c906001614f3f565b6001600160401b03169050804311610fdc57828786610fba81614f6a565b975081518110610fcc57610fcc614f13565b6020026020010181905250611161565b610fe881610100614f85565b43116110d957600082610ffa846118f2565b834060405160200161100e93929190614f9d565b60408051601f19818403018152919052805160209091012090506014611035606483614fd6565b101561108357600083815261016960205260409020805460ff60f01b1916600160f01b17905588516001908a908990811061107257611072614f13565b911515602092830291909101909101525b600083815261016960205260409020805460ff60e81b1916600160e81b178155600101819055828a886110b581614f6a565b9950815181106110c7576110c7614f13565b60200260200101818152505050611161565b610167805460018181018355600083905285517f025f925b23c02f7114773957b1a876f2af957c14a29118dc622648c445020dcf909201805460208801516001600160401b03908116600160401b026001600160801b031990921694169390931792909217909155905461114d9190614fea565b600083815261016960205260409020600101555b505050808061116f90614f6a565b915050610f39565b50611185610166600061435f565b60005b81811015611208576101668482815181106111a5576111a5614f13565b602090810291909101810151825460018101845560009384529282902081519301805491909201516001600160401b03908116600160401b026001600160801b03199092169316929092179190911790558061120081614f6a565b915050611188565b5085821015611218578185528184525b600080516020615c7a8339815191528585604051611237929190615001565b60405180910390a1505050505050565b600061125283611927565b82106112b45760405162461bcd60e51b815260206004820152602b60248201527f455243373231456e756d657261626c653a206f776e657220696e646578206f7560448201526a74206f6620626f756e647360a81b606482015260840161099c565b506001600160a01b0391909116600090815261012d60209081526040808320938352929052205490565b306001600160a01b037f00000000000000000000000000000000000000000000000000000000000000001614156113275760405162461bcd60e51b815260040161099c9061507e565b7f00000000000000000000000000000000000000000000000000000000000000006001600160a01b03166113596133e4565b6001600160a01b03161461137f5760405162461bcd60e51b815260040161099c906150b8565b61138881613400565b604080516000808252602082019092526113a491839190613408565b50565b610160546001600160a01b031633146113d25760405162461bcd60e51b815260040161099c90614bbb565b600090815261016960205260409020805460ff60f01b1916600160f01b179055565b610dcb838383604051806020016040528060008152506121dd565b610160546001600160a01b0316331461143a5760405162461bcd60e51b815260040161099c90614bbb565b610163546001600160a01b03166114865760405162461bcd60e51b815260206004820152601060248201526f23a12a219d10273790213ab4b63232b960811b604482015260640161099c565b60005b81811015610dcb576114d08383838181106114a6576114a6614f13565b90506020020160208101906114bb919061447d565b610163546001600160a01b0316600019613582565b806114da81614f6a565b915050611489565b306001600160a01b037f000000000000000000000000000000000000000000000000000000000000000016141561152b5760405162461bcd60e51b815260040161099c9061507e565b7f00000000000000000000000000000000000000000000000000000000000000006001600160a01b031661155d6133e4565b6001600160a01b0316146115835760405162461bcd60e51b815260040161099c906150b8565b61158c82613400565b61159882826001613408565b5050565b60006115a861012f5490565b821061160b5760405162461bcd60e51b815260206004820152602c60248201527f455243373231456e756d657261626c653a20676c6f62616c20696e646578206f60448201526b7574206f6620626f756e647360a01b606482015260840161099c565b61012f828154811061161f5761161f614f13565b90600052602060002001549050919050565b80428110156116525760405162461bcd60e51b815260040161099c90614c12565b61016860006116646020890189614c4e565b6001600160801b039081168252602082019290925260400160002054600160801b900416156116a55760405162461bcd60e51b815260040161099c90614c6b565b6116c16116b5602085018561447d565b33308660200135613696565b60036000638d7fcefd6116d7602087018761447d565b610164546001600160a01b0316602080890135906116fb9060408e01908e01614c4e565b86898c6040516024016117149796959493929190614d92565b6040516020818303038152906040529060e01b6020820180516001600160e01b038381831617835250505050905061175981896040016020810190610b66919061447d565b61176288612fc4565b600080516020615c9a83398151915261177e60208a018a614c4e565b61178e60408b0160208c01614c4e565b61179e60608c0160408d0161447d565b6117ae60808d0160608e01614e3f565b6040516117be9493929190614e5c565b60405180910390a15050505050505050565b610160546001600160a01b031633146117fb5760405162461bcd60e51b815260040161099c90614bbb565b6001600160a01b0381166118215760405162461bcd60e51b815260040161099c90614be6565b61016480546001600160a01b0319166001600160a01b0392909216919091179055565b6000306001600160a01b037f000000000000000000000000000000000000000000000000000000000000000016146118df5760405162461bcd60e51b815260206004820152603860248201527f555550535570677261646561626c653a206d757374206e6f742062652063616c6044820152771b1959081d1a1c9bdd59da0819195b1959d85d1958d85b1b60421b606482015260840161099c565b50600080516020615bb383398151915290565b600081815260fd60205260408120546001600160a01b03168061096b5760405162461bcd60e51b815260040161099c906150f2565b60006001600160a01b0382166119915760405162461bcd60e51b815260206004820152602960248201527f4552433732313a2061646472657373207a65726f206973206e6f7420612076616044820152683634b21037bbb732b960b91b606482015260840161099c565b506001600160a01b0316600090815260fe602052604090205490565b6119b56137c6565b6119bf6000613825565b565b610160546001600160a01b031633146119ec5760405162461bcd60e51b815260040161099c90614bbb565b6001600160a01b038116611a125760405162461bcd60e51b815260040161099c90614be6565b61016280546001600160a01b0319166001600160a01b0392909216919091179055565b6060610166805480602002602001604051908101604052809291908181526020016000905b82821015611aa357600084815260209081902060408051808201909152908401546001600160401b038082168352600160401b9091041681830152825260019092019101611a5a565b50505050905090565b610160546001600160a01b03163314611ad75760405162461bcd60e51b815260040161099c90614bbb565b80838114611b1c5760405162461bcd60e51b815260206004820152601260248201527108e84a8867440aee4dedcce4098cadccee8d60731b604482015260640161099c565b6101675480611b695760405162461bcd60e51b815260206004820152601960248201527811d09510ce88115b5c1d1e4813dd995c9d1a5b5948131a5cdd603a1b604482015260640161099c565b6000816001600160401b03811115611b8357611b836146c3565b604051908082528060200260200182016040528015611bac578160200160208202803683370190505b5090506000826001600160401b03811115611bc957611bc96146c3565b604051908082528060200260200182016040528015611bf2578160200160208202803683370190505b5090506000805b85811015611ecd5760008a8a83818110611c1557611c15614f13565b60209081029290920135600081815261016990935260409092205491925050600160e01b810460ff9081161515600160e81b9092041615151415611c995760405162461bcd60e51b815260206004820152601b60248201527a474254433a2057726f6e67204f76657274696d652053746174757360281b604482015260640161099c565b6000818152610169602052604081206001015490611cb6836118f2565b9050600083828d8d88818110611cce57611cce614f13565b90506020020135604051602001611ce793929190614f9d565b60408051601f19818403018152919052805160209091012090506014611d0e606483614fd6565b1015611d5c57600084815261016960205260409020805460ff60f01b1916600160f01b1790558651600190889088908110611d4b57611d4b614f13565b911515602092830291909101909101525b600084815261016960205260408120805460ff60e81b1916600160e81b178155600190810183905561016754611d929190614fea565b905080841015611e575760006101678281548110611db257611db2614f13565b6000918252602091829020604080518082019091529101546001600160401b038082168352600160401b90910416918101919091526101678054919250829187908110611e0157611e01614f13565b60009182526020808320845192018054948201516001600160401b03908116600160401b026001600160801b03199096169381169390931794909417909355925190921682526101699052604090206001018490555b610167805480611e6957611e69615124565b600082815260209020810160001990810180546001600160801b0319169055019055848988611e9781614f6a565b995081518110611ea957611ea9614f13565b60200260200101818152505050505050508080611ec590614f6a565b915050611bf9565b50808352600080516020615c7a8339815191528383604051611ef0929190615001565b60405180910390a1505050505050505050565b6097546001600160a01b031690565b606060fc8054610c1090614e90565b611598338383613877565b600080600061016360009054906101000a90046001600160a01b03166001600160a01b031663678aa4f36040518163ffffffff1660e01b815260040160206040518083038186803b158015611f8057600080fd5b505afa158015611f94573d6000803e3d6000fd5b505050506040513d601f19601f82011682018060405250810190611fb8919061513a565b604051633612cf2560e01b81526001600160a01b038781166004830152868116602483015291925090821690633612cf2590604401604080518083038186803b15801561200457600080fd5b505afa158015612018573d6000803e3d6000fd5b505050506040513d601f19601f8201168201806040525081019061203c9190615157565b90969095509350505050565b612051816118f2565b6001600160a01b0316336001600160a01b0316146120a35760405162461bcd60e51b815260206004820152600f60248201526e23a12a219d102737ba1027bbb732b960891b604482015260640161099c565b60008181526101696020526040902054600160e01b900460ff16156121015760405162461bcd60e51b815260206004820152601460248201527311d09510ce88105b1c9958591e4813dc195b995960621b604482015260640161099c565b6040805180820182526001600160401b0383811682524380821660208085019182526101668054600181018255600091825286517fa5a4c57b7184ec73d55be4993773cb4eef681bc86a28d0285cd66efb50676a97909101805494518716600160401b026001600160801b03199095169190961617929092179093558581526101698352849020805460ff60e01b1916600160e01b179055835133815291820185905292810192909252907f66b10d9ff37b599d2105c94c297dc6149f44b851df44d93080dc0833ba8e6e919060600160405180910390a15050565b6121e733836131f0565b6122035760405162461bcd60e51b815260040161099c90614ec5565b61220f84848484613943565b50505050565b60606101678054806020026020016040519081016040528092919081815260200160009082821015611aa357600084815260209081902060408051808201909152908401546001600160401b038082168352600160401b9091041681830152825260019092019101611a5a565b80428110156122a35760405162461bcd60e51b815260040161099c90614c12565b61016860006122b56020890189614c4e565b6001600160801b039081168252602082019290925260400160002054600160801b900416156122f65760405162461bcd60e51b815260040161099c90614c6b565b6001600160a01b038316600090815261016a602052604090205460ff166123585760405162461bcd60e51b815260206004820152601660248201527511d09510ce8810549508139bdd081058d8d95c1d195960521b604482015260640161099c565b6123628686612d2b565b60006123746040880160208901614c4e565b6001600160801b0316905061238b84333084613696565b6000636e556df8858386896040516024016117149493929190615186565b600081815261016860205260409020546060906001600160801b03166124045760405162461bcd60e51b815260206004820152601060248201526f11d09510ce88139bdd08135a5b9d195960821b604482015260640161099c565b60008281526101696020526040902054606090600160e01b900460ff166124ae576101625460405163014a90df60e31b8152600481018590526001600160a01b0390911690630a5486f8906024015b60006040518083038186803b15801561246b57600080fd5b505afa15801561247f573d6000803e3d6000fd5b505050506040513d6000823e601f3d908101601f191682016040526124a791908101906151b3565b9050612599565b60008381526101696020526040902054600160f01b900460ff1661250b576101625460008481526101686020526040908190209051638513089960e01b81526001600160a01b039092169163851308999161245391600401615297565b61016260009054906101000a90046001600160a01b03166001600160a01b03166360f217096040518163ffffffff1660e01b815260040160006040518083038186803b15801561255a57600080fd5b505afa15801561256e573d6000803e3d6000fd5b505050506040513d6000823e601f3d908101601f1916820160405261259691908101906151b3565b90505b60008381526101696020526040902054606090600160e01b900460ff166125f5576125c384613976565b6125cc85613976565b836040516020016125df93929190615375565b604051602081830303815290604052905061266f565b60008481526101696020526040902054600160f01b900460ff166126385761261c84613976565b61262585613976565b836040516020016125df93929190615466565b61264184613976565b61264a85613976565b8360405160200161265d93929190615580565b60405160208183030381529060405290505b61267881613a73565b6040516020016126889190615722565b60405160208183030381529060405292505050919050565b6126a86137c6565b60005b8281101561220f5760008484838181106126c7576126c7614f13565b90506020020160208101906126dc919061447d565b90506001600160a01b0381161580159061271657506001600160a01b038116600090815261016a602052604090205460ff16151583151514155b61275d5760405162461bcd60e51b815260206004820152601860248201527748534b4553473a2057726f6e67204152542053746174757360401b604482015260640161099c565b6001600160a01b0316600090815261016a60205260409020805460ff19168315151790558061278b81614f6a565b9150506126ab565b61279b6137c6565b6001600160a01b0381166127c15760405162461bcd60e51b815260040161099c90614be6565b61016080546001600160a01b0319166001600160a01b0392909216919091179055565b600081815261016860205260408120548190600160801b90046001600160801b031661281557506000928392509050565b505060009081526101696020526040902054600191600160e01b90910460ff1690565b6001600160a01b0391821660009081526101006020908152604080832093909416825291909152205460ff1690565b61286f6137c6565b6001600160a01b0381166128d45760405162461bcd60e51b815260206004820152602660248201527f4f776e61626c653a206e6577206f776e657220697320746865207a65726f206160448201526564647265737360d01b606482015260840161099c565b6113a481613825565b610168602052600090815260409020805460018201546002830180546001600160801b0380851695600160801b90950416936001600160a01b03841693600160a01b900460ff1692909161293090614e90565b80601f016020809104026020016040519081016040528092919081815260200182805461295c90614e90565b80156129a95780601f1061297e576101008083540402835291602001916129a9565b820191906000526020600020905b81548152906001019060200180831161298c57829003601f168201915b5050505050908060030180546129be90614e90565b80601f01602080910402602001604051908101604052809291908181526020018280546129ea90614e90565b8015612a375780601f10612a0c57610100808354040283529160200191612a37565b820191906000526020600020905b815481529060010190602001808311612a1a57829003601f168201915b5050505050905086565b600054610100900460ff1615808015612a615750600054600160ff909116105b80612a825750612a7030613bc6565b158015612a82575060005460ff166001145b612ae55760405162461bcd60e51b815260206004820152602e60248201527f496e697469616c697a61626c653a20636f6e747261637420697320616c72656160448201526d191e481a5b9a5d1a585b1a5e995960921b606482015260840161099c565b6000805460ff191660011790558015612b08576000805461ff0019166101001790555b612b10613bd5565b612b18613bfc565b612b5e60405180604001604052806008815260200167477265656e42544360c01b815250604051806040016040528060048152602001634742544360e01b815250613c2c565b6040805180820182526008815267477265656e42544360c01b6020918201528151808301835260018152603160f81b9082015281517f8b73c3c69bb8fe3d512ecc4cf759cc79239f7b179b0ffacaa9a75d522b39400f818301527fb3a45fcd4763a16513dc52caa8ec9c66c025fe2bac0fe94e957309a783c43bfa818401527fc89efdaa54c0f20c7adf612882df0950f5a951637e0307cdcb4c672f298b8bc660608201524660808201523060a0808301919091528351808303909101815260c0909101909252815191012061015f55612c36611f03565b61016080546001600160a01b03199081166001600160a01b039384161790915561016180548216888416179055610163805482168784161790556101648054821686841617905561016580549091169184169190911790558015612cd4576000805461ff0019169055604051600181527f7f26b83ff96e1f2b6a682f133852f6798a09c465da95921460cefb38474024989060200160405180910390a15b5050505050565b60006001600160e01b031982166380ac58cd60e01b1480612d0c57506001600160e01b03198216635b5e139f60e01b145b8061096b57506301ffc9a760e01b6001600160e01b031983161461096b565b60007f2cc287d531f97592968321a2680791d868f5cafdc02c8f9f059c431e7ef0f086612d5b6020850185614c4e565b612d6860a0860186615767565b612d786040880160208901614c4e565b612d856080890189615767565b612d9560608b0160408c0161447d565b612da560808c0160608d01614e3f565b604051602001612dbd999897969594939291906157ad565b604051602081830303815290604052805190602001209050600061015f5482604051602001612e0392919061190160f01b81526002810192909252602282015260420190565b6040516020818303038152906040528051906020012090506000600182856000016020810190612e339190614e3f565b604080516000815260208181018084529490945260ff9092168282015291870135606082015290860135608082015260a0016020604051602081039080840390855afa158015612e87573d6000803e3d6000fd5b5050604051601f190151610161549092506001600160a01b038084169116149050612cd45760405162461bcd60e51b8152602060048201526017602482015276474254433a20496e76616c69642053696e67617475726560481b604482015260640161099c565b6101635460405160009182916001600160a01b0390911690612f1190859061581c565b6000604051808303816000865af19150503d8060008114612f4e576040519150601f19603f3d011682016040523d82523d6000602084013e612f53565b606091505b509150915081610dcb57805115612f6d5780518082602001fd5b60405162461bcd60e51b815260206004820152602660248201527f474254433a204572726f722043616c6c20746f20616374696f6e4275696c646560448201526572426164676560d01b606482015260840161099c565b806101686000612fd76020840184614c4e565b6001600160801b031681526020019081526020016000208181612ffa919061594a565b50506040805160c081018252600080825260208201819052918101829052606081018290526080810182905260a081019190915261303e606083016040840161447d565b6001600160a01b031681526130566020830183614c4e565b6001600160401b031660208083019190915281906101699060009061307d90860186614c4e565b6001600160801b03168152602080820192909252604090810160002083518154938501518584015160608088015160808901511515600160f01b0260ff60f01b19911515600160e81b0260ff60e81b19941515600160e01b029490941661ffff60e01b196001600160401b03909616600160a01b026001600160e01b0319909a166001600160a01b0390971696909617989098179390931693909317171693909317815560a0909301516001909301929092556115989161314291850190850161447d565b61314f6020850185614c4e565b6001600160801b0316613c7a565b61316681613da6565b6113a45760405162461bcd60e51b815260040161099c906150f2565b600081815260ff6020526040902080546001600160a01b0319166001600160a01b03841690811790915581906131b7826118f2565b6001600160a01b03167f8c5be1e5ebec7d5bd14f71427d1e84f3dd0314c0f7b2291e5b200ac8c7c3b92560405160405180910390a45050565b6000806131fc836118f2565b9050806001600160a01b0316846001600160a01b0316148061322357506132238185612838565b806132475750836001600160a01b031661323c84610c93565b6001600160a01b0316145b949350505050565b826001600160a01b0316613262826118f2565b6001600160a01b0316146132c65760405162461bcd60e51b815260206004820152602560248201527f4552433732313a207472616e736665722066726f6d20696e636f72726563742060448201526437bbb732b960d91b606482015260840161099c565b6001600160a01b0382166133285760405162461bcd60e51b8152602060048201526024808201527f4552433732313a207472616e7366657220746f20746865207a65726f206164646044820152637265737360e01b606482015260840161099c565b613333838383613dc3565b61333e600082613182565b6001600160a01b038316600090815260fe60205260408120805460019290613367908490614fea565b90915550506001600160a01b038216600090815260fe60205260408120805460019290613395908490614f85565b9091555050600081815260fd602052604080822080546001600160a01b0319166001600160a01b038681169182179092559151849391871691600080516020615c5a83398151915291a4505050565b600080516020615bb3833981519152546001600160a01b031690565b6113a46137c6565b7f4910fdfa16fed3260ed0e7147f7cc6da11a60208b5b9406d12a635614ffd91435460ff161561343b57610dcb83613e7d565b826001600160a01b03166352d1902d6040518163ffffffff1660e01b815260040160206040518083038186803b15801561347457600080fd5b505afa9250505080156134a4575060408051601f3d908101601f191682019092526134a191810190615a1c565b60015b6135075760405162461bcd60e51b815260206004820152602e60248201527f45524331393637557067726164653a206e657720696d706c656d656e7461746960448201526d6f6e206973206e6f74205555505360901b606482015260840161099c565b600080516020615bb383398151915281146135765760405162461bcd60e51b815260206004820152602960248201527f45524331393637557067726164653a20756e737570706f727465642070726f786044820152681a58589b195555525160ba1b606482015260840161099c565b50610dcb838383613f17565b604080516001600160a01b038481166024830152604480830185905283518084039091018152606490920183526020820180516001600160e01b031663095ea7b360e01b17905291516000928392908716916135de919061581c565b6000604051808303816000865af19150503d806000811461361b576040519150601f19603f3d011682016040523d82523d6000602084013e613620565b606091505b509150915081801561364a57508051158061364a57508080602001905181019061364a9190615a35565b612cd45760405162461bcd60e51b815260206004820152601e60248201527f5472616e7366657248656c7065723a20415050524f56455f4641494c45440000604482015260640161099c565b604080516001600160a01b0385811660248301528481166044830152606480830185905283518084039091018152608490920183526020820180516001600160e01b03166323b872dd60e01b17905291516000928392908816916136fa919061581c565b6000604051808303816000865af19150503d8060008114613737576040519150601f19603f3d011682016040523d82523d6000602084013e61373c565b606091505b50915091508180156137665750805115806137665750808060200190518101906137669190615a35565b6137be5760405162461bcd60e51b8152602060048201526024808201527f5472616e7366657248656c7065723a205452414e534645525f46524f4d5f46416044820152631253115160e21b606482015260840161099c565b505050505050565b336137cf611f03565b6001600160a01b0316146119bf5760405162461bcd60e51b815260206004820181905260248201527f4f776e61626c653a2063616c6c6572206973206e6f7420746865206f776e6572604482015260640161099c565b609780546001600160a01b038381166001600160a01b0319831681179093556040519116919082907f8be0079c531659141344cd1fd0a4f28419497f9722a3daafe3b4186f6b6457e090600090a35050565b816001600160a01b0316836001600160a01b031614156138d55760405162461bcd60e51b815260206004820152601960248201527822a9219b99189d1030b8383937bb32903a379031b0b63632b960391b604482015260640161099c565b6001600160a01b0383811660008181526101006020908152604080832094871680845294825291829020805460ff191686151590811790915591519182527f17307eab39ab6107e8899845ad3d59bd9653f200f220920489ca2b5937696c31910160405180910390a3505050565b61394e84848461324f565b61395a84848484613f3c565b61220f5760405162461bcd60e51b815260040161099c90615a52565b60608161399a5750506040805180820190915260018152600360fc1b602082015290565b8160005b81156139c457806139ae81614f6a565b91506139bd9050600a83615aa4565b915061399e565b6000816001600160401b038111156139de576139de6146c3565b6040519080825280601f01601f191660200182016040528015613a08576020820181803683370190505b5090505b841561324757613a1d600183614fea565b9150613a2a600a86614fd6565b613a35906030614f85565b60f81b818381518110613a4a57613a4a614f13565b60200101906001600160f81b031916908160001a905350613a6c600a86615aa4565b9450613a0c565b6060815160001415613a9357505060408051602081019091526000815290565b6000604051806060016040528060408152602001615bd36040913990506000600384516002613ac29190614f85565b613acc9190615aa4565b613ad7906004615ab8565b6001600160401b03811115613aee57613aee6146c3565b6040519080825280601f01601f191660200182016040528015613b18576020820181803683370190505b509050600182016020820185865187015b80821015613b84576003820191508151603f8160121c168501518453600184019350603f81600c1c168501518453600184019350603f8160061c168501518453600184019350603f8116850151845350600183019250613b29565b5050600386510660018114613ba05760028114613bb357613bbb565b603d6001830353603d6002830353613bbb565b603d60018303535b509195945050505050565b6001600160a01b03163b151590565b600054610100900460ff166119bf5760405162461bcd60e51b815260040161099c90615ad7565b600054610100900460ff16613c235760405162461bcd60e51b815260040161099c90615ad7565b6119bf33613825565b600054610100900460ff16613c535760405162461bcd60e51b815260040161099c90615ad7565b8151613c669060fb90602085019061437d565b508051610dcb9060fc90602084019061437d565b6001600160a01b038216613cd05760405162461bcd60e51b815260206004820181905260248201527f4552433732313a206d696e7420746f20746865207a65726f2061646472657373604482015260640161099c565b613cd981613da6565b15613d255760405162461bcd60e51b815260206004820152601c60248201527b115490cdcc8c4e881d1bdad95b88185b1c9958591e481b5a5b9d195960221b604482015260640161099c565b613d3160008383613dc3565b6001600160a01b038216600090815260fe60205260408120805460019290613d5a908490614f85565b9091555050600081815260fd602052604080822080546001600160a01b0319166001600160a01b0386169081179091559051839290600080516020615c5a833981519152908290a45050565b600090815260fd60205260409020546001600160a01b0316151590565b6001600160a01b038316613e2057613e1b8161012f8054600083815261013060205260408120829055600182018355919091527f232da9e50dad2971456a78fb5cd6ff6b75019984d6e918139ce990999420f9790155565b613e43565b816001600160a01b0316836001600160a01b031614613e4357613e438382614050565b6001600160a01b038216613e5a57610dcb816140f2565b826001600160a01b0316826001600160a01b031614610dcb57610dcb82826141a7565b613e8681613bc6565b613ee85760405162461bcd60e51b815260206004820152602d60248201527f455243313936373a206e657720696d706c656d656e746174696f6e206973206e60448201526c1bdd08184818dbdb9d1c9858dd609a1b606482015260840161099c565b600080516020615bb383398151915280546001600160a01b0319166001600160a01b0392909216919091179055565b613f20836141ed565b600082511180613f2d5750805b15610dcb5761220f838361422d565b6000613f50846001600160a01b0316613bc6565b1561404557604051630a85bd0160e11b81526001600160a01b0385169063150b7a0290613f87903390899088908890600401615b22565b602060405180830381600087803b158015613fa157600080fd5b505af1925050508015613fd1575060408051601f3d908101601f19168201909252613fce91810190615b55565b60015b61402b573d808015613fff576040519150601f19603f3d011682016040523d82523d6000602084013e614004565b606091505b5080516140235760405162461bcd60e51b815260040161099c90615a52565b805181602001fd5b6001600160e01b031916630a85bd0160e11b149050613247565b506001949350505050565b6000600161405d84611927565b6140679190614fea565b600083815261012e60205260409020549091508082146140bd576001600160a01b038416600090815261012d60209081526040808320858452825280832054848452818420819055835261012e90915290208190555b50600091825261012e602090815260408084208490556001600160a01b03909416835261012d81528383209183525290812055565b61012f5460009061410590600190614fea565b6000838152610130602052604081205461012f805493945090928490811061412f5761412f614f13565b906000526020600020015490508061012f838154811061415157614151614f13565b6000918252602080832090910192909255828152610130909152604080822084905585825281205561012f80548061418b5761418b615124565b6001900381819060005260206000200160009055905550505050565b60006141b283611927565b6001600160a01b03909316600090815261012d60209081526040808320868452825280832085905593825261012e9052919091209190915550565b6141f681613e7d565b6040516001600160a01b038216907fbc7cd75a20ee27fd9adebab32041f755214dbc6bffa90cc0225b39da2e5c2d3b90600090a250565b606061423883613bc6565b6142935760405162461bcd60e51b815260206004820152602660248201527f416464726573733a2064656c65676174652063616c6c20746f206e6f6e2d636f6044820152651b9d1c9858dd60d21b606482015260840161099c565b600080846001600160a01b0316846040516142ae919061581c565b600060405180830381855af49150503d80600081146142e9576040519150601f19603f3d011682016040523d82523d6000602084013e6142ee565b606091505b50915091506143168282604051806060016040528060278152602001615c336027913961431f565b95945050505050565b6060831561432e575081614358565b82511561433e5782518084602001fd5b8160405162461bcd60e51b815260040161099c91906145aa565b9392505050565b50805460008255906000526020600020908101906113a49190614401565b82805461438990614e90565b90600052602060002090601f0160209004810192826143ab57600085556143f1565b82601f106143c457805160ff19168380011785556143f1565b828001600101855582156143f1579182015b828111156143f15782518255916020019190600101906143d6565b506143fd929150614420565b5090565b5b808211156143fd5780546001600160801b0319168155600101614402565b5b808211156143fd5760008155600101614421565b6001600160e01b0319811681146113a457600080fd5b60006020828403121561445d57600080fd5b813561435881614435565b6001600160a01b03811681146113a457600080fd5b60006020828403121561448f57600080fd5b813561435881614468565b600060c082840312156144ac57600080fd5b50919050565b6000606082840312156144ac57600080fd5b6000608082840312156144ac57600080fd5b60008060008060c085870312156144ec57600080fd5b84356001600160401b038082111561450357600080fd5b61450f8883890161449a565b955061451e88602089016144b2565b9450608087013591508082111561453457600080fd5b50614541878288016144c4565b9497939650939460a0013593505050565b60005b8381101561456d578181015183820152602001614555565b8381111561220f5750506000910152565b60008151808452614596816020860160208601614552565b601f01601f19169290920160200192915050565b602081526000614358602083018461457e565b6000602082840312156145cf57600080fd5b5035919050565b600080604083850312156145e957600080fd5b82356145f481614468565b946020939093013593505050565b60008060006060848603121561461757600080fd5b833561462281614468565b9250602084013561463281614468565b929592945050506040919091013590565b60008083601f84011261465557600080fd5b5081356001600160401b0381111561466c57600080fd5b6020830191508360208260051b850101111561468757600080fd5b9250929050565b600080602083850312156146a157600080fd5b82356001600160401b038111156146b757600080fd5b61203c85828601614643565b634e487b7160e01b600052604160045260246000fd5b604051601f8201601f191681016001600160401b0381118282101715614701576147016146c3565b604052919050565b60006001600160401b03821115614722576147226146c3565b50601f01601f191660200190565b600082601f83011261474157600080fd5b813561475461474f82614709565b6146d9565b81815284602083860101111561476957600080fd5b816020850160208301376000918101602001919091529392505050565b6000806040838503121561479957600080fd5b82356147a481614468565b915060208301356001600160401b038111156147bf57600080fd5b6147cb85828601614730565b9150509250929050565b60008060008060008587036101008112156147ef57600080fd5b86356001600160401b038082111561480657600080fd5b6148128a838b0161449a565b97506148218a60208b016144b2565b9650608089013591508082111561483757600080fd5b5061484489828a016144c4565b9450506040609f198201121561485957600080fd5b509396929550909360a08101935060e00135919050565b602080825282518282018190526000919060409081850190868401855b828110156148bf57815180516001600160401b039081168652908701511686850152928401929085019060010161488d565b5091979650505050505050565b600080600080604085870312156148e257600080fd5b84356001600160401b03808211156148f957600080fd5b61490588838901614643565b9096509450602087013591508082111561491e57600080fd5b5061492b87828801614643565b95989497509550505050565b80151581146113a457600080fd5b6000806040838503121561495857600080fd5b823561496381614468565b9150602083013561497381614937565b809150509250929050565b6000806040838503121561499157600080fd5b823561499c81614468565b9150602083013561497381614468565b600080600080608085870312156149c257600080fd5b84356149cd81614468565b935060208501356149dd81614468565b92506040850135915060608501356001600160401b038111156149ff57600080fd5b614a0b87828801614730565b91505092959194509250565b600080600080600060e08688031215614a2f57600080fd5b85356001600160401b0380821115614a4657600080fd5b614a5289838a0161449a565b9650614a618960208a016144b2565b95506080880135915080821115614a7757600080fd5b50614a84888289016144c4565b93505060a0860135614a9581614468565b9497939650919460c0013592915050565b600080600060408486031215614abb57600080fd5b83356001600160401b03811115614ad157600080fd5b614add86828701614643565b9094509250506020840135614af181614937565b809150509250925092565b6001600160801b038781168252861660208201526001600160a01b038516604082015260ff8416606082015260c060808201819052600090614b409083018561457e565b82810360a0840152614b52818561457e565b9998505050505050505050565b60008060008060808587031215614b7557600080fd5b8435614b8081614468565b93506020850135614b9081614468565b92506040850135614ba081614468565b91506060850135614bb081614468565b939692955090935050565b60208082526011908201527023a12a219d102737ba1026b0b730b3b2b960791b604082015260600190565b602080825260129082015271474254433a205a65726f204164647265737360701b604082015260600190565b6020808252600d908201526c11d09510ce8811561412549151609a1b604082015260600190565b6001600160801b03811681146113a457600080fd5b600060208284031215614c6057600080fd5b813561435881614c39565b60208082526014908201527311d09510ce88105b1c9958591e48135a5b9d195960621b604082015260600190565b6000808335601e19843603018112614cb057600080fd5b83016020810192503590506001600160401b03811115614ccf57600080fd5b80360383131561468757600080fd5b81835281816020850137506000828201602090810191909152601f909101601f19169091010190565b60008135614d1481614468565b6001600160a01b03168352614d2c6020830183614c99565b60806020860152614d41608086018284614cde565b915050614d516040840184614c99565b8583036040870152614d64838284614cde565b92505050614d756060840184614c99565b8583036060870152614d88838284614cde565b9695505050505050565b6001600160a01b03888116825287166020820152604081018690526001600160801b03851660608201526080810184905260a0810183905260e060c08201819052600090614b5290830184614d07565b60008151614df4818560208601614552565b9290920192915050565b60008351614e10818460208801614552565b60609390931b6001600160601b0319169190920190815260140192915050565b60ff811681146113a457600080fd5b600060208284031215614e5157600080fd5b813561435881614e30565b6001600160801b0394851681529290931660208301526001600160a01b0316604082015260ff909116606082015260800190565b600181811c90821680614ea457607f821691505b602082108114156144ac57634e487b7160e01b600052602260045260246000fd5b6020808252602e908201527f4552433732313a2063616c6c6572206973206e6f7420746f6b656e206f776e6560408201526d1c881b9bdc88185c1c1c9bdd995960921b606082015260800190565b634e487b7160e01b600052603260045260246000fd5b634e487b7160e01b600052601160045260246000fd5b60006001600160401b03828116848216808303821115614f6157614f61614f29565b01949350505050565b6000600019821415614f7e57614f7e614f29565b5060010190565b60008219821115614f9857614f98614f29565b500190565b92835260609190911b6001600160601b0319166020830152603482015260540190565b634e487b7160e01b600052601260045260246000fd5b600082614fe557614fe5614fc0565b500690565b600082821015614ffc57614ffc614f29565b500390565b604080825283519082018190526000906020906060840190828701845b8281101561503a5781518452928401929084019060010161501e565b5050508381038285015284518082528583019183019060005b81811015615071578351151583529284019291840191600101615053565b5090979650505050505050565b6020808252602c90820152600080516020615b9383398151915260408201526b19195b1959d85d1958d85b1b60a21b606082015260800190565b6020808252602c90820152600080516020615b9383398151915260408201526b6163746976652070726f787960a01b606082015260800190565b602080825260189082015277115490cdcc8c4e881a5b9d985b1a59081d1bdad95b88125160421b604082015260600190565b634e487b7160e01b600052603160045260246000fd5b60006020828403121561514c57600080fd5b815161435881614468565b6000806040838503121561516a57600080fd5b825161517581614c39565b602084015190925061497381614c39565b60018060a01b0385168152836020820152826040820152608060608201526000614d886080830184614d07565b6000602082840312156151c557600080fd5b81516001600160401b038111156151db57600080fd5b8201601f810184136151ec57600080fd5b80516151fa61474f82614709565b81815285602083850101111561520f57600080fd5b614316826020830160208601614552565b6000815461522d81614e90565b80855260206001838116801561524a576001811461525e5761528c565b60ff1985168884015260408801955061528c565b866000528260002060005b858110156152845781548a8201860152908301908401615269565b890184019650505b505050505092915050565b602080825282546001600160801b03811691830191909152608090811c604083015260018301546001600160a01b038116606084015260a090811c60ff169183019190915260c09082015260006152f460e0830160028501615220565b828103601f190160c08401526132478160038601615220565b7f222c226465736372697074696f6e223a22477265656e2042544320436c7562228152600b60fa1b602082015260210190565b7f22696d616765223a22646174613a696d6167652f7376672b786d6c3b626173658152620d8d0b60ea1b602082015260230190565b737b226e616d65223a22477265656e20425443202360601b815283516000906153a5816014850160208901614552565b6153b360148285010161530d565b9050600080516020615b7383398151915281527f747573222c2276616c7565223a225365616c6564227d2c7b2274726169745f746020820152763cb832911d112432b4b3b43a1116113b30b63ab2911d1160491b6040820152845161541f816057840160208901614552565b63089f574b60e21b6057929091019182015261543d605b8201615340565b9050835161544f818360208801614552565b61227d60f01b910190815260020195945050505050565b737b226e616d65223a22477265656e20425443202360601b81528351600090615496816014850160208901614552565b6154a460148285010161530d565b9050600080516020615b7383398151915281527f747573222c2276616c7565223a224f70656e6564227d2c7b2274726169745f746020820152763cb832911d112432b4b3b43a1116113b30b63ab2911d1160491b60408201528451615510816057840160208901614552565b600080516020615c13833981519152605792909101918201527f3a2231322e333534204d5768227d2c7b2274726169745f74797065223a224c6f60778201527b18d85d1a5bdb888b089d985b1d59488e8890995a5a9a5b99c89f574b60221b609782015261543d60b38201615340565b737b226e616d65223a22477265656e20425443202360601b815283516000906155b0816014850160208901614552565b6155be60148285010161530d565b9050600080516020615b7383398151915281527f747573222c2276616c7565223a224c75636b79227d2c7b2274726169745f74796020820152753832911d112432b4b3b43a1116113b30b63ab2911d1160511b60408201528451615629816056840160208901614552565b600080516020615c13833981519152605692909101918201527f3a2232352e363636204d5768227d2c7b2274726169745f74797065223a224c6f60768201527f636174696f6e222c2276616c7565223a2253696e6761706f7265227d2c00000060968201527f7b2274726169745f74797065223a22486174222c2276616c7565223a22436f7760b38201527f626f7920686174227d2c7b2274726169745f74797065223a22542d536869727460d382015277088b089d985b1d59488e8894dd5a5d0815995cdd089f574b60421b60f3820152614d8861571461570e61010b8401615340565b86614de2565b61227d60f01b815260020190565b7f646174613a6170706c69636174696f6e2f6a736f6e3b6261736536342c00000081526000825161575a81601d850160208701614552565b91909101601d0192915050565b6000808335601e1984360301811261577e57600080fd5b8301803591506001600160401b0382111561579857600080fd5b60200191503681900382131561468757600080fd5b898152600060018060801b03808b16602084015260e060408401526157d660e084018a8c614cde565b818916606085015283810360808501526157f181888a614cde565b6001600160a01b039690961660a085015250505060ff9190911660c090910152979650505050505050565b6000825161582e818460208701614552565b9190910192915050565b6000813561096b81614e30565b601f821115610dcb57600081815260208120601f850160051c8101602086101561586c5750805b601f850160051c820191505b818110156137be57828155600101615878565b6001600160401b038311156158a2576158a26146c3565b6158b6836158b08354614e90565b83615845565b6000601f8411600181146158ea57600085156158d25750838201355b600019600387901b1c1916600186901b178355612cd4565b600083815260209020601f19861690835b8281101561591b57868501358255602094850194600190920191016158fb565b50868210156159385760001960f88860031b161c19848701351681555b505060018560011b0183555050505050565b813561595581614c39565b81546001600160801b03199081166001600160801b03929092169182178355602084013561598281614c39565b60801b1617815560018101604083013561599b81614468565b81546001600160a01b0319166001600160a01b03919091161781556159e36159c560608501615838565b82805460ff60a01b191660a09290921b60ff60a01b16919091179055565b506159f16080830183615767565b6159ff81836002860161588b565b5050615a0e60a0830183615767565b61220f81836003860161588b565b600060208284031215615a2e57600080fd5b5051919050565b600060208284031215615a4757600080fd5b815161435881614937565b60208082526032908201527f4552433732313a207472616e7366657220746f206e6f6e20455243373231526560408201527131b2b4bb32b91034b6b83632b6b2b73a32b960711b606082015260800190565b600082615ab357615ab3614fc0565b500490565b6000816000190483118215151615615ad257615ad2614f29565b500290565b6020808252602b908201527f496e697469616c697a61626c653a20636f6e7472616374206973206e6f74206960408201526a6e697469616c697a696e6760a81b606082015260800190565b6001600160a01b0385811682528416602082015260408101839052608060608201819052600090614d889083018461457e565b600060208284031215615b6757600080fd5b81516143588161443556fe2261747472696275746573223a5b7b2274726169745f74797065223a2253746146756e6374696f6e206d7573742062652063616c6c6564207468726f75676820360894a13ba1a3210667c828492db98dca3e2076cc3735a920a3ca505d382bbc4142434445464748494a4b4c4d4e4f505152535455565758595a6162636465666768696a6b6c6d6e6f707172737475767778797a303132333435363738392b2f227d2c7b2274726169745f74797065223a22506f776572222c2276616c756522416464726573733a206c6f772d6c6576656c2064656c65676174652063616c6c206661696c6564ddf252ad1be2c89b69c2b068fc378daa952ba7f163c4a11628f55a4df523b3ef13fd5be0d97b4b51663a980542a7970c1a8ce6a3828629ef4f54f17a50200e3979c8f412993c72ce60b23ac109f97d606389e44244c46ef8ca530ef920558ceaa164736f6c6343000809000a",
  "devdoc": {
    "kind": "dev",
    "methods": {
      "approve(address,uint256)": {
        "details": "See {IERC721-approve}."
      },
      "approveBuilder(address[])": {
        "details": "Approve the tokens which can be transferred from this GreenBTC contract by arkreenBuilder",
        "params": {
          "tokens": "The token list"
        }
      },
      "authMintGreenBTCWithART((uint128,uint128,address,uint8,string,string),(uint8,bytes32,bytes32),(address,string,string,string),address,uint256)": {
        "details": "Greenize BTC with specified ART token",
        "params": {
          "badgeInfo": "Information that will logged in Arkreen climate badge",
          "deadline": "The deadline to cancel the transaction",
          "gbtc": "Bitcoin block info to be greenized",
          "sig": "Signature of the authority to Bitcoin block info",
          "tokenART": "Address of the ART token, which should be whitelisted in the accepted list."
        }
      },
      "authMintGreenBTCWithApprove((uint128,uint128,address,uint8,string,string),(uint8,bytes32,bytes32),(address,string,string,string),(address,uint256),uint256)": {
        "details": "Greenize BTC with the token/amount that the user has approved",
        "params": {
          "badgeInfo": "Information that will logged in Arkreen climate badge",
          "deadline": "The deadline to cancel the transaction",
          "gbtc": "Bitcoin block info to be greenized",
          "payInfo": "Address and amount of the token that will be used to pay for offsetting ART",
          "sig": "Signature of the authority to Bitcoin block info"
        }
      },
      "authMintGreenBTCWithNative((uint128,uint128,address,uint8,string,string),(uint8,bytes32,bytes32),(address,string,string,string),uint256)": {
        "details": "Greenize BTC with the native token",
        "params": {
          "badgeInfo": "Information that will logged in Arkreen climate badge",
          "deadline": "The deadline to cancel the transaction",
          "gbtc": "Bitcoin block info to be greenized",
          "sig": "Signature of the authority to Bitcoin block info"
        }
      },
      "balanceOf(address)": {
        "details": "See {IERC721-balanceOf}."
      },
      "constructor": {
        "custom:oz-upgrades-unsafe-allow": "constructor"
      },
      "getApproved(uint256)": {
        "details": "See {IERC721-getApproved}."
      },
      "getOpeningBoxList()": {
        "details": "Return all the boxes waiting for revealing."
      },
      "getOvertimeBoxList()": {
        "details": "Return all the boxes waiting for revealing with hash value"
      },
      "getPrice(address,address)": {
        "details": "Get the price and sold amount of the specified ART versus the payment token ",
        "params": {
          "tokenART": "ART token",
          "tokenPay": "Payment token"
        }
      },
      "isApprovedForAll(address,address)": {
        "details": "See {IERC721-isApprovedForAll}."
      },
      "isUnPacking(uint256)": {
        "details": "Return if the specified token is sold and openned"
      },
      "mangeARTTokens(address[],bool)": {
        "details": "Add or remove the acceptable ART tokens",
        "params": {
          "addOrRemove": "= 0, to remove; = 1, to add",
          "tokenARTList": "ART list to add or rmeove"
        }
      },
      "name()": {
        "details": "See {IERC721Metadata-name}."
      },
      "openBox(uint256)": {
        "details": "Open the Green Bitcoin box, only thw owner of the box acceptable.",
        "params": {
          "tokenID": "ID of the NFT token to be opened"
        }
      },
      "owner()": {
        "details": "Returns the address of the current owner."
      },
      "ownerOf(uint256)": {
        "details": "See {IERC721-ownerOf}."
      },
      "proxiableUUID()": {
        "details": "Implementation of the ERC1822 {proxiableUUID} function. This returns the storage slot used by the implementation. It is used to validate that the this implementation remains valid after an upgrade. IMPORTANT: A proxy pointing at a proxiable contract should not be considered proxiable itself, because this risks bricking a proxy that upgrades to it, by delegating to itself until out of gas. Thus it is critical that this function revert if invoked through a proxy. This is guaranteed by the `notDelegated` modifier."
      },
      "renounceOwnership()": {
        "details": "Leaves the contract without owner. It will not be possible to call `onlyOwner` functions anymore. Can only be called by the current owner. NOTE: Renouncing ownership will leave the contract without an owner, thereby removing any functionality that is only available to the owner."
      },
      "revealBoxes()": {
        "details": "Reveal all the opened boxes stored internally. All overtime boxes will be moved to another list.  waiting for another revealing with hash value."
      },
      "revealBoxesWithHash(uint256[],uint256[])": {
        "details": "Reveal the overtime boxes given in the input list.",
        "params": {
          "hashList": "All the hash values of the block next after to block the NFT is minted.",
          "tokenList": "All the token IDs of the NFT to be revealed."
        }
      },
      "safeTransferFrom(address,address,uint256)": {
        "details": "See {IERC721-safeTransferFrom}."
      },
      "safeTransferFrom(address,address,uint256,bytes)": {
        "details": "See {IERC721-safeTransferFrom}."
      },
      "setApprovalForAll(address,bool)": {
        "details": "See {IERC721-setApprovalForAll}."
      },
      "setLuck(uint256)": {
        "details": "See {IERC721Metadata-tokenURI}."
      },
      "supportsInterface(bytes4)": {
        "details": "See {IERC165-supportsInterface}."
      },
      "symbol()": {
        "details": "See {IERC721Metadata-symbol}."
      },
      "tokenByIndex(uint256)": {
        "details": "See {IERC721Enumerable-tokenByIndex}."
      },
      "tokenOfOwnerByIndex(address,uint256)": {
        "details": "See {IERC721Enumerable-tokenOfOwnerByIndex}."
      },
      "tokenURI(uint256)": {
        "details": "See {IERC721Metadata-tokenURI}."
      },
      "totalSupply()": {
        "details": "See {IERC721Enumerable-totalSupply}."
      },
      "transferFrom(address,address,uint256)": {
        "details": "See {IERC721-transferFrom}."
      },
      "transferOwnership(address)": {
        "details": "Transfers ownership of the contract to a new account (`newOwner`). Can only be called by the current owner."
      },
      "upgradeTo(address)": {
        "details": "Upgrade the implementation of the proxy to `newImplementation`. Calls {_authorizeUpgrade}. Emits an {Upgraded} event."
      },
      "upgradeToAndCall(address,bytes)": {
        "details": "Upgrade the implementation of the proxy to `newImplementation`, and subsequently execute the function call encoded in `data`. Calls {_authorizeUpgrade}. Emits an {Upgraded} event."
      }
    },
    "version": 1
  },
  "userdoc": {
    "kind": "user",
    "methods": {},
    "version": 1
  },
  "storageLayout": {
    "storage": [
      {
        "astId": 940,
        "contract": "contracts/GreenBTC.sol:GreenBTC",
        "label": "_initialized",
        "offset": 0,
        "slot": "0",
        "type": "t_uint8"
      },
      {
        "astId": 943,
        "contract": "contracts/GreenBTC.sol:GreenBTC",
        "label": "_initializing",
        "offset": 1,
        "slot": "0",
        "type": "t_bool"
      },
      {
        "astId": 922,
        "contract": "contracts/GreenBTC.sol:GreenBTC",
        "label": "__gap",
        "offset": 0,
        "slot": "1",
        "type": "t_array(t_uint256)50_storage"
      },
      {
        "astId": 3851,
        "contract": "contracts/GreenBTC.sol:GreenBTC",
        "label": "__gap",
        "offset": 0,
        "slot": "51",
        "type": "t_array(t_uint256)50_storage"
      },
      {
        "astId": 1219,
        "contract": "contracts/GreenBTC.sol:GreenBTC",
        "label": "__gap",
        "offset": 0,
        "slot": "101",
        "type": "t_array(t_uint256)50_storage"
      },
      {
        "astId": 423,
        "contract": "contracts/GreenBTC.sol:GreenBTC",
        "label": "_owner",
        "offset": 0,
        "slot": "151",
        "type": "t_address"
      },
      {
        "astId": 543,
        "contract": "contracts/GreenBTC.sol:GreenBTC",
        "label": "__gap",
        "offset": 0,
        "slot": "152",
        "type": "t_array(t_uint256)49_storage"
      },
      {
        "astId": 4181,
        "contract": "contracts/GreenBTC.sol:GreenBTC",
        "label": "__gap",
        "offset": 0,
        "slot": "201",
        "type": "t_array(t_uint256)50_storage"
      },
      {
        "astId": 2154,
        "contract": "contracts/GreenBTC.sol:GreenBTC",
        "label": "_name",
        "offset": 0,
        "slot": "251",
        "type": "t_string_storage"
      },
      {
        "astId": 2156,
        "contract": "contracts/GreenBTC.sol:GreenBTC",
        "label": "_symbol",
        "offset": 0,
        "slot": "252",
        "type": "t_string_storage"
      },
      {
        "astId": 2160,
        "contract": "contracts/GreenBTC.sol:GreenBTC",
        "label": "_owners",
        "offset": 0,
        "slot": "253",
        "type": "t_mapping(t_uint256,t_address)"
      },
      {
        "astId": 2164,
        "contract": "contracts/GreenBTC.sol:GreenBTC",
        "label": "_balances",
        "offset": 0,
        "slot": "254",
        "type": "t_mapping(t_address,t_uint256)"
      },
      {
        "astId": 2168,
        "contract": "contracts/GreenBTC.sol:GreenBTC",
        "label": "_tokenApprovals",
        "offset": 0,
        "slot": "255",
        "type": "t_mapping(t_uint256,t_address)"
      },
      {
        "astId": 2174,
        "contract": "contracts/GreenBTC.sol:GreenBTC",
        "label": "_operatorApprovals",
        "offset": 0,
        "slot": "256",
        "type": "t_mapping(t_address,t_mapping(t_address,t_bool))"
      },
      {
        "astId": 3016,
        "contract": "contracts/GreenBTC.sol:GreenBTC",
        "label": "__gap",
        "offset": 0,
        "slot": "257",
        "type": "t_array(t_uint256)44_storage"
      },
      {
        "astId": 3181,
        "contract": "contracts/GreenBTC.sol:GreenBTC",
        "label": "_ownedTokens",
        "offset": 0,
        "slot": "301",
        "type": "t_mapping(t_address,t_mapping(t_uint256,t_uint256))"
      },
      {
        "astId": 3185,
        "contract": "contracts/GreenBTC.sol:GreenBTC",
        "label": "_ownedTokensIndex",
        "offset": 0,
        "slot": "302",
        "type": "t_mapping(t_uint256,t_uint256)"
      },
      {
        "astId": 3188,
        "contract": "contracts/GreenBTC.sol:GreenBTC",
        "label": "_allTokens",
        "offset": 0,
        "slot": "303",
        "type": "t_array(t_uint256)dyn_storage"
      },
      {
        "astId": 3192,
        "contract": "contracts/GreenBTC.sol:GreenBTC",
        "label": "_allTokensIndex",
        "offset": 0,
        "slot": "304",
        "type": "t_mapping(t_uint256,t_uint256)"
      },
      {
        "astId": 3508,
        "contract": "contracts/GreenBTC.sol:GreenBTC",
        "label": "__gap",
        "offset": 0,
        "slot": "305",
        "type": "t_array(t_uint256)46_storage"
      },
      {
        "astId": 30598,
        "contract": "contracts/GreenBTC.sol:GreenBTC",
        "label": "DOMAIN_SEPARATOR",
        "offset": 0,
        "slot": "351",
        "type": "t_bytes32"
      },
      {
        "astId": 30600,
        "contract": "contracts/GreenBTC.sol:GreenBTC",
        "label": "manager",
        "offset": 0,
        "slot": "352",
        "type": "t_address"
      },
      {
        "astId": 30602,
        "contract": "contracts/GreenBTC.sol:GreenBTC",
        "label": "authorizer",
        "offset": 0,
        "slot": "353",
        "type": "t_address"
      },
      {
        "astId": 30604,
        "contract": "contracts/GreenBTC.sol:GreenBTC",
        "label": "greenBtcImage",
        "offset": 0,
        "slot": "354",
        "type": "t_address"
      },
      {
        "astId": 30606,
        "contract": "contracts/GreenBTC.sol:GreenBTC",
        "label": "arkreenBuilder",
        "offset": 0,
        "slot": "355",
        "type": "t_address"
      },
      {
        "astId": 30608,
        "contract": "contracts/GreenBTC.sol:GreenBTC",
        "label": "tokenCART",
        "offset": 0,
        "slot": "356",
        "type": "t_address"
      },
      {
        "astId": 30610,
        "contract": "contracts/GreenBTC.sol:GreenBTC",
        "label": "tokenNative",
        "offset": 0,
        "slot": "357",
        "type": "t_address"
      },
      {
        "astId": 30614,
        "contract": "contracts/GreenBTC.sol:GreenBTC",
        "label": "openingBoxList",
        "offset": 0,
        "slot": "358",
        "type": "t_array(t_struct(OpenInfo)32375_storage)dyn_storage"
      },
      {
        "astId": 30618,
        "contract": "contracts/GreenBTC.sol:GreenBTC",
        "label": "overtimeBoxList",
        "offset": 0,
        "slot": "359",
        "type": "t_array(t_struct(OpenInfo)32375_storage)dyn_storage"
      },
      {
        "astId": 30623,
        "contract": "contracts/GreenBTC.sol:GreenBTC",
        "label": "dataGBTC",
        "offset": 0,
        "slot": "360",
        "type": "t_mapping(t_uint256,t_struct(GreenBTCInfo)32357_storage)"
      },
      {
        "astId": 30628,
        "contract": "contracts/GreenBTC.sol:GreenBTC",
        "label": "dataNFT",
        "offset": 0,
        "slot": "361",
        "type": "t_mapping(t_uint256,t_struct(NFTStaus)32370_storage)"
      },
      {
        "astId": 30632,
        "contract": "contracts/GreenBTC.sol:GreenBTC",
        "label": "whiteARTList",
        "offset": 0,
        "slot": "362",
        "type": "t_mapping(t_address,t_bool)"
      }
    ],
    "types": {
      "t_address": {
        "encoding": "inplace",
        "label": "address",
        "numberOfBytes": "20"
      },
      "t_array(t_struct(OpenInfo)32375_storage)dyn_storage": {
        "base": "t_struct(OpenInfo)32375_storage",
        "encoding": "dynamic_array",
        "label": "struct OpenInfo[]",
        "numberOfBytes": "32"
      },
      "t_array(t_uint256)44_storage": {
        "base": "t_uint256",
        "encoding": "inplace",
        "label": "uint256[44]",
        "numberOfBytes": "1408"
      },
      "t_array(t_uint256)46_storage": {
        "base": "t_uint256",
        "encoding": "inplace",
        "label": "uint256[46]",
        "numberOfBytes": "1472"
      },
      "t_array(t_uint256)49_storage": {
        "base": "t_uint256",
        "encoding": "inplace",
        "label": "uint256[49]",
        "numberOfBytes": "1568"
      },
      "t_array(t_uint256)50_storage": {
        "base": "t_uint256",
        "encoding": "inplace",
        "label": "uint256[50]",
        "numberOfBytes": "1600"
      },
      "t_array(t_uint256)dyn_storage": {
        "base": "t_uint256",
        "encoding": "dynamic_array",
        "label": "uint256[]",
        "numberOfBytes": "32"
      },
      "t_bool": {
        "encoding": "inplace",
        "label": "bool",
        "numberOfBytes": "1"
      },
      "t_bytes32": {
        "encoding": "inplace",
        "label": "bytes32",
        "numberOfBytes": "32"
      },
      "t_mapping(t_address,t_bool)": {
        "encoding": "mapping",
        "key": "t_address",
        "label": "mapping(address => bool)",
        "numberOfBytes": "32",
        "value": "t_bool"
      },
      "t_mapping(t_address,t_mapping(t_address,t_bool))": {
        "encoding": "mapping",
        "key": "t_address",
        "label": "mapping(address => mapping(address => bool))",
        "numberOfBytes": "32",
        "value": "t_mapping(t_address,t_bool)"
      },
      "t_mapping(t_address,t_mapping(t_uint256,t_uint256))": {
        "encoding": "mapping",
        "key": "t_address",
        "label": "mapping(address => mapping(uint256 => uint256))",
        "numberOfBytes": "32",
        "value": "t_mapping(t_uint256,t_uint256)"
      },
      "t_mapping(t_address,t_uint256)": {
        "encoding": "mapping",
        "key": "t_address",
        "label": "mapping(address => uint256)",
        "numberOfBytes": "32",
        "value": "t_uint256"
      },
      "t_mapping(t_uint256,t_address)": {
        "encoding": "mapping",
        "key": "t_uint256",
        "label": "mapping(uint256 => address)",
        "numberOfBytes": "32",
        "value": "t_address"
      },
      "t_mapping(t_uint256,t_struct(GreenBTCInfo)32357_storage)": {
        "encoding": "mapping",
        "key": "t_uint256",
        "label": "mapping(uint256 => struct GreenBTCInfo)",
        "numberOfBytes": "32",
        "value": "t_struct(GreenBTCInfo)32357_storage"
      },
      "t_mapping(t_uint256,t_struct(NFTStaus)32370_storage)": {
        "encoding": "mapping",
        "key": "t_uint256",
        "label": "mapping(uint256 => struct NFTStaus)",
        "numberOfBytes": "32",
        "value": "t_struct(NFTStaus)32370_storage"
      },
      "t_mapping(t_uint256,t_uint256)": {
        "encoding": "mapping",
        "key": "t_uint256",
        "label": "mapping(uint256 => uint256)",
        "numberOfBytes": "32",
        "value": "t_uint256"
      },
      "t_string_storage": {
        "encoding": "bytes",
        "label": "string",
        "numberOfBytes": "32"
      },
      "t_struct(GreenBTCInfo)32357_storage": {
        "encoding": "inplace",
        "label": "struct GreenBTCInfo",
        "members": [
          {
            "astId": 32346,
            "contract": "contracts/GreenBTC.sol:GreenBTC",
            "label": "height",
            "offset": 0,
            "slot": "0",
            "type": "t_uint128"
          },
          {
            "astId": 32348,
            "contract": "contracts/GreenBTC.sol:GreenBTC",
            "label": "ARTCount",
            "offset": 16,
            "slot": "0",
            "type": "t_uint128"
          },
          {
            "astId": 32350,
            "contract": "contracts/GreenBTC.sol:GreenBTC",
            "label": "beneficiary",
            "offset": 0,
            "slot": "1",
            "type": "t_address"
          },
          {
            "astId": 32352,
            "contract": "contracts/GreenBTC.sol:GreenBTC",
            "label": "greenType",
            "offset": 20,
            "slot": "1",
            "type": "t_uint8"
          },
          {
            "astId": 32354,
            "contract": "contracts/GreenBTC.sol:GreenBTC",
            "label": "blockTime",
            "offset": 0,
            "slot": "2",
            "type": "t_string_storage"
          },
          {
            "astId": 32356,
            "contract": "contracts/GreenBTC.sol:GreenBTC",
            "label": "energyStr",
            "offset": 0,
            "slot": "3",
            "type": "t_string_storage"
          }
        ],
        "numberOfBytes": "128"
      },
      "t_struct(NFTStaus)32370_storage": {
        "encoding": "inplace",
        "label": "struct NFTStaus",
        "members": [
          {
            "astId": 32359,
            "contract": "contracts/GreenBTC.sol:GreenBTC",
            "label": "owner",
            "offset": 0,
            "slot": "0",
            "type": "t_address"
          },
          {
            "astId": 32361,
            "contract": "contracts/GreenBTC.sol:GreenBTC",
            "label": "blockHeight",
            "offset": 20,
            "slot": "0",
            "type": "t_uint64"
          },
          {
            "astId": 32363,
            "contract": "contracts/GreenBTC.sol:GreenBTC",
            "label": "open",
            "offset": 28,
            "slot": "0",
            "type": "t_bool"
          },
          {
            "astId": 32365,
            "contract": "contracts/GreenBTC.sol:GreenBTC",
            "label": "reveal",
            "offset": 29,
            "slot": "0",
            "type": "t_bool"
          },
          {
            "astId": 32367,
            "contract": "contracts/GreenBTC.sol:GreenBTC",
            "label": "won",
            "offset": 30,
            "slot": "0",
            "type": "t_bool"
          },
          {
            "astId": 32369,
            "contract": "contracts/GreenBTC.sol:GreenBTC",
            "label": "hash",
            "offset": 0,
            "slot": "1",
            "type": "t_uint256"
          }
        ],
        "numberOfBytes": "64"
      },
      "t_struct(OpenInfo)32375_storage": {
        "encoding": "inplace",
        "label": "struct OpenInfo",
        "members": [
          {
            "astId": 32372,
            "contract": "contracts/GreenBTC.sol:GreenBTC",
            "label": "tokenID",
            "offset": 0,
            "slot": "0",
            "type": "t_uint64"
          },
          {
            "astId": 32374,
            "contract": "contracts/GreenBTC.sol:GreenBTC",
            "label": "openHeight",
            "offset": 8,
            "slot": "0",
            "type": "t_uint64"
          }
        ],
        "numberOfBytes": "32"
      },
      "t_uint128": {
        "encoding": "inplace",
        "label": "uint128",
        "numberOfBytes": "16"
      },
      "t_uint256": {
        "encoding": "inplace",
        "label": "uint256",
        "numberOfBytes": "32"
      },
      "t_uint64": {
        "encoding": "inplace",
        "label": "uint64",
        "numberOfBytes": "8"
      },
      "t_uint8": {
        "encoding": "inplace",
        "label": "uint8",
        "numberOfBytes": "1"
      }
    }
  }
}